{
  "_format": "hh-sol-artifact-1",
  "contractName": "SensorDataRegistry",
  "sourceName": "contracts/SensorDataRegistry.sol",
  "abi": [
    {
      "inputs": [],
      "stateMutability": "nonpayable",
      "type": "constructor"
    },
    {
      "anonymous": false,
      "inputs": [
        {
          "indexed": true,
          "internalType": "bytes16",
          "name": "sensorDataId",
          "type": "bytes16"
        },
        {
          "indexed": true,
          "internalType": "bytes16",
          "name": "manufacturerId",
          "type": "bytes16"
        },
        {
          "indexed": true,
          "internalType": "bytes16",
          "name": "packageId",
          "type": "bytes16"
        },
        {
          "indexed": false,
          "internalType": "bytes32",
          "name": "hash",
          "type": "bytes32"
        },
        {
          "indexed": false,
          "internalType": "address",
          "name": "createdBy",
          "type": "address"
        },
        {
          "indexed": false,
          "internalType": "uint256",
          "name": "createdAt",
          "type": "uint256"
        }
      ],
      "name": "SensorDataRegistered",
      "type": "event"
    },
    {
      "inputs": [
        {
          "internalType": "bytes16",
          "name": "sensorDataId",
          "type": "bytes16"
        }
      ],
      "name": "getSensorData",
      "outputs": [
        {
          "components": [
            {
              "internalType": "bytes32",
              "name": "hash",
              "type": "bytes32"
            },
            {
              "internalType": "uint256",
              "name": "createdAt",
              "type": "uint256"
            },
            {
              "internalType": "address",
              "name": "createdBy",
              "type": "address"
            }
          ],
          "internalType": "struct SensorDataRegistry.SensorDataMeta",
          "name": "",
          "type": "tuple"
        }
      ],
      "stateMutability": "view",
      "type": "function"
    },
    {
      "inputs": [],
      "name": "owner",
      "outputs": [
        {
          "internalType": "address",
          "name": "",
          "type": "address"
        }
      ],
      "stateMutability": "view",
      "type": "function"
    },
    {
      "inputs": [
        {
          "internalType": "bytes16",
          "name": "sensorDataId",
          "type": "bytes16"
        },
        {
          "internalType": "bytes16",
          "name": "manufacturerId",
          "type": "bytes16"
        },
        {
          "internalType": "bytes16",
          "name": "packageId",
          "type": "bytes16"
        },
        {
          "internalType": "bytes",
          "name": "canonicalPayload",
          "type": "bytes"
        }
      ],
      "name": "registerSensorData",
      "outputs": [],
      "stateMutability": "nonpayable",
      "type": "function"
    },
    {
      "inputs": [
        {
          "internalType": "bytes16",
          "name": "",
          "type": "bytes16"
        }
      ],
      "name": "sensorDataRecords",
      "outputs": [
        {
          "internalType": "bytes32",
          "name": "hash",
          "type": "bytes32"
        },
        {
          "internalType": "uint256",
          "name": "createdAt",
          "type": "uint256"
        },
        {
          "internalType": "address",
          "name": "createdBy",
          "type": "address"
        }
      ],
      "stateMutability": "view",
      "type": "function"
    }
  ],
  "bytecode": "0x608060405234801561001057600080fd5b50336000806101000a81548173ffffffffffffffffffffffffffffffffffffffff021916908373ffffffffffffffffffffffffffffffffffffffff16021790555061092c806100606000396000f3fe608060405234801561001057600080fd5b506004361061004c5760003560e01c806313532adb14610051578063442c42e31461008157806362269120146100b35780638da5cb5b146100cf575b600080fd5b61006b60048036038101906100669190610515565b6100ed565b60405161007891906105f7565b60405180910390f35b61009b60048036038101906100969190610515565b610229565b6040516100aa9392919061063f565b60405180910390f35b6100cd60048036038101906100c891906106db565b610273565b005b6100d7610455565b6040516100e49190610763565b60405180910390f35b6100f5610479565b600060016000846fffffffffffffffffffffffffffffffff19166fffffffffffffffffffffffffffffffff191681526020019081526020016000206001015403610174576040517f08c379a000000000000000000000000000000000000000000000000000000000815260040161016b906107db565b60405180910390fd5b60016000836fffffffffffffffffffffffffffffffff19166fffffffffffffffffffffffffffffffff1916815260200190815260200160002060405180606001604052908160008201548152602001600182015481526020016002820160009054906101000a900473ffffffffffffffffffffffffffffffffffffffff1673ffffffffffffffffffffffffffffffffffffffff1673ffffffffffffffffffffffffffffffffffffffff16815250509050919050565b60016020528060005260406000206000915090508060000154908060010154908060020160009054906101000a900473ffffffffffffffffffffffffffffffffffffffff16905083565b600060016000876fffffffffffffffffffffffffffffffff19166fffffffffffffffffffffffffffffffff1916815260200190815260200160002060010154146102f2576040517f08c379a00000000000000000000000000000000000000000000000000000000081526004016102e990610847565b60405180910390fd5b600082826040516103049291906108a6565b6040518091039020905060405180606001604052808281526020014281526020013373ffffffffffffffffffffffffffffffffffffffff1681525060016000886fffffffffffffffffffffffffffffffff19166fffffffffffffffffffffffffffffffff19168152602001908152602001600020600082015181600001556020820151816001015560408201518160020160006101000a81548173ffffffffffffffffffffffffffffffffffffffff021916908373ffffffffffffffffffffffffffffffffffffffff160217905550905050836fffffffffffffffffffffffffffffffff1916856fffffffffffffffffffffffffffffffff1916876fffffffffffffffffffffffffffffffff19167f914b9f793adff4e8039f3ac627d38776630497116b14be482ebd8c32184cfcb7843342604051610445939291906108bf565b60405180910390a4505050505050565b60008054906101000a900473ffffffffffffffffffffffffffffffffffffffff1681565b60405180606001604052806000801916815260200160008152602001600073ffffffffffffffffffffffffffffffffffffffff1681525090565b600080fd5b600080fd5b60007fffffffffffffffffffffffffffffffff0000000000000000000000000000000082169050919050565b6104f2816104bd565b81146104fd57600080fd5b50565b60008135905061050f816104e9565b92915050565b60006020828403121561052b5761052a6104b3565b5b600061053984828501610500565b91505092915050565b6000819050919050565b61055581610542565b82525050565b6000819050919050565b61056e8161055b565b82525050565b600073ffffffffffffffffffffffffffffffffffffffff82169050919050565b600061059f82610574565b9050919050565b6105af81610594565b82525050565b6060820160008201516105cb600085018261054c565b5060208201516105de6020850182610565565b5060408201516105f160408501826105a6565b50505050565b600060608201905061060c60008301846105b5565b92915050565b61061b81610542565b82525050565b61062a8161055b565b82525050565b61063981610594565b82525050565b60006060820190506106546000830186610612565b6106616020830185610621565b61066e6040830184610630565b949350505050565b600080fd5b600080fd5b600080fd5b60008083601f84011261069b5761069a610676565b5b8235905067ffffffffffffffff8111156106b8576106b761067b565b5b6020830191508360018202830111156106d4576106d3610680565b5b9250929050565b6000806000806000608086880312156106f7576106f66104b3565b5b600061070588828901610500565b955050602061071688828901610500565b945050604061072788828901610500565b935050606086013567ffffffffffffffff811115610748576107476104b8565b5b61075488828901610685565b92509250509295509295909350565b60006020820190506107786000830184610630565b92915050565b600082825260208201905092915050565b7f53656e736f72206461746120656e74727920646f6573206e6f74206578697374600082015250565b60006107c560208361077e565b91506107d08261078f565b602082019050919050565b600060208201905081810360008301526107f4816107b8565b9050919050565b7f53656e736f72206461746120656e74727920616c726561647920657869737473600082015250565b600061083160208361077e565b915061083c826107fb565b602082019050919050565b6000602082019050818103600083015261086081610824565b9050919050565b600081905092915050565b82818337600083830152505050565b600061088d8385610867565b935061089a838584610872565b82840190509392505050565b60006108b3828486610881565b91508190509392505050565b60006060820190506108d46000830186610612565b6108e16020830185610630565b6108ee6040830184610621565b94935050505056fea264697066735822122083ad5a65a4620b3c0738869dbe51113d85a998a6e745c6bc47be9672665c2f5964736f6c63430008180033",
  "linkReferences": {},
  "deployedLinkReferences": {}
}