{
  "_format": "hh-sol-artifact-1",
  "contractName": "RegistrationRegistry",
  "sourceName": "contracts/RegistrationRegistry.sol",
  "abi": [
    {
      "inputs": [
        {
          "internalType": "uint8",
          "name": "regType",
          "type": "uint8"
        }
      ],
      "name": "InvalidRegistrationType",
      "type": "error"
    },
    {
      "inputs": [
        {
          "internalType": "uint256",
          "name": "size",
          "type": "uint256"
        },
        {
          "internalType": "uint256",
          "name": "max",
          "type": "uint256"
        }
      ],
      "name": "PayloadTooLarge",
      "type": "error"
    },
    {
      "inputs": [
        {
          "internalType": "bytes16",
          "name": "uuid",
          "type": "bytes16"
        }
      ],
      "name": "RegistrationAlreadyExists",
      "type": "error"
    },
    {
      "inputs": [
        {
          "internalType": "bytes16",
          "name": "uuid",
          "type": "bytes16"
        }
      ],
      "name": "RegistrationDoesNotExist",
      "type": "error"
    },
    {
      "anonymous": false,
      "inputs": [
        {
          "indexed": true,
          "internalType": "bytes16",
          "name": "uuid",
          "type": "bytes16"
        },
        {
          "indexed": false,
          "internalType": "bytes32",
          "name": "payloadHash",
          "type": "bytes32"
        },
        {
          "indexed": false,
          "internalType": "uint8",
          "name": "regType",
          "type": "uint8"
        },
        {
          "indexed": true,
          "internalType": "address",
          "name": "submitter",
          "type": "address"
        },
        {
          "indexed": false,
          "internalType": "uint256",
          "name": "timestamp",
          "type": "uint256"
        },
        {
          "indexed": false,
          "internalType": "bool",
          "name": "isUpdate",
          "type": "bool"
        }
      ],
      "name": "RegistrationSubmitted",
      "type": "event"
    },
    {
      "inputs": [],
      "name": "MAX_PAYLOAD_BYTES",
      "outputs": [
        {
          "internalType": "uint256",
          "name": "",
          "type": "uint256"
        }
      ],
      "stateMutability": "view",
      "type": "function"
    },
    {
      "inputs": [
        {
          "internalType": "bytes16",
          "name": "uuid",
          "type": "bytes16"
        }
      ],
      "name": "exists",
      "outputs": [
        {
          "internalType": "bool",
          "name": "",
          "type": "bool"
        }
      ],
      "stateMutability": "view",
      "type": "function"
    },
    {
      "inputs": [
        {
          "internalType": "bytes16",
          "name": "uuid",
          "type": "bytes16"
        }
      ],
      "name": "getRegistration",
      "outputs": [
        {
          "internalType": "bytes32",
          "name": "payloadHash",
          "type": "bytes32"
        },
        {
          "internalType": "uint8",
          "name": "regType",
          "type": "uint8"
        },
        {
          "internalType": "address",
          "name": "submitter",
          "type": "address"
        },
        {
          "internalType": "uint256",
          "name": "updatedAt",
          "type": "uint256"
        }
      ],
      "stateMutability": "view",
      "type": "function"
    },
    {
      "inputs": [
        {
          "internalType": "bytes16",
          "name": "uuid",
          "type": "bytes16"
        },
        {
          "internalType": "uint8",
          "name": "regType",
          "type": "uint8"
        },
        {
          "internalType": "string",
          "name": "payloadCanonicalJson",
          "type": "string"
        },
        {
          "internalType": "bool",
          "name": "isUpdate",
          "type": "bool"
        }
      ],
      "name": "submit",
      "outputs": [],
      "stateMutability": "nonpayable",
      "type": "function"
    }
  ],
  "bytecode": "0x608060405234801561001057600080fd5b50610a39806100206000396000f3fe608060405234801561001057600080fd5b506004361061004c5760003560e01c806335e10301146100515780633ee2bdaf1461006d5780635fa4a4bc1461009d578063d31ecaa7146100d0575b600080fd5b61006b60048036038101906100669190610708565b6100ee565b005b61008760048036038101906100829190610790565b61045f565b60405161009491906107cc565b60405180910390f35b6100b760048036038101906100b29190610790565b6104af565b6040516100c79493929190610869565b60405180910390f35b6100d86105ca565b6040516100e591906108ae565b60405180910390f35b600380811115610101576101006108c9565b5b60ff168460ff16111561014b57836040517f1b47e6dc00000000000000000000000000000000000000000000000000000000815260040161014291906108f8565b60405180910390fd5b600083839050905061200081111561019e57806120006040517f04247564000000000000000000000000000000000000000000000000000000008152600401610195929190610913565b60405180910390fd5b600060016000886fffffffffffffffffffffffffffffffff19166fffffffffffffffffffffffffffffffff1916815260200190815260200160002060009054906101000a900460ff1690508080156101f4575082155b1561023657866040517f5ef4253700000000000000000000000000000000000000000000000000000000815260040161022d919061094b565b60405180910390fd5b801580156102415750825b1561028357866040517f892d0fad00000000000000000000000000000000000000000000000000000000815260040161027a919061094b565b60405180910390fd5b600085856040516102959291906109a5565b60405180910390209050600042905060405180608001604052808381526020018960ff1681526020013373ffffffffffffffffffffffffffffffffffffffff168152602001828152506000808b6fffffffffffffffffffffffffffffffff19166fffffffffffffffffffffffffffffffff191681526020019081526020016000206000820151816000015560208201518160010160006101000a81548160ff021916908360ff16021790555060408201518160010160016101000a81548173ffffffffffffffffffffffffffffffffffffffff021916908373ffffffffffffffffffffffffffffffffffffffff16021790555060608201518160020155905050826103ec5760018060008b6fffffffffffffffffffffffffffffffff19166fffffffffffffffffffffffffffffffff1916815260200190815260200160002060006101000a81548160ff0219169083151502179055505b3373ffffffffffffffffffffffffffffffffffffffff16896fffffffffffffffffffffffffffffffff19167f71d3f4b61af81e6b213932e0b17248291737c185ceefb6b76c81243a6dec32a2848b858a60405161044c94939291906109be565b60405180910390a3505050505050505050565b600060016000836fffffffffffffffffffffffffffffffff19166fffffffffffffffffffffffffffffffff1916815260200190815260200160002060009054906101000a900460ff169050919050565b60008060008060016000866fffffffffffffffffffffffffffffffff19166fffffffffffffffffffffffffffffffff1916815260200190815260200160002060009054906101000a900460ff1661053d57846040517f892d0fad000000000000000000000000000000000000000000000000000000008152600401610534919061094b565b60405180910390fd5b6000806000876fffffffffffffffffffffffffffffffff19166fffffffffffffffffffffffffffffffff19168152602001908152602001600020905080600001548160010160009054906101000a900460ff168260010160019054906101000a900473ffffffffffffffffffffffffffffffffffffffff1683600201549450945094509450509193509193565b61200081565b600080fd5b600080fd5b60007fffffffffffffffffffffffffffffffff0000000000000000000000000000000082169050919050565b61060f816105da565b811461061a57600080fd5b50565b60008135905061062c81610606565b92915050565b600060ff82169050919050565b61064881610632565b811461065357600080fd5b50565b6000813590506106658161063f565b92915050565b600080fd5b600080fd5b600080fd5b60008083601f8401126106905761068f61066b565b5b8235905067ffffffffffffffff8111156106ad576106ac610670565b5b6020830191508360018202830111156106c9576106c8610675565b5b9250929050565b60008115159050919050565b6106e5816106d0565b81146106f057600080fd5b50565b600081359050610702816106dc565b92915050565b600080600080600060808688031215610724576107236105d0565b5b60006107328882890161061d565b955050602061074388828901610656565b945050604086013567ffffffffffffffff811115610764576107636105d5565b5b6107708882890161067a565b93509350506060610783888289016106f3565b9150509295509295909350565b6000602082840312156107a6576107a56105d0565b5b60006107b48482850161061d565b91505092915050565b6107c6816106d0565b82525050565b60006020820190506107e160008301846107bd565b92915050565b6000819050919050565b6107fa816107e7565b82525050565b61080981610632565b82525050565b600073ffffffffffffffffffffffffffffffffffffffff82169050919050565b600061083a8261080f565b9050919050565b61084a8161082f565b82525050565b6000819050919050565b61086381610850565b82525050565b600060808201905061087e60008301876107f1565b61088b6020830186610800565b6108986040830185610841565b6108a5606083018461085a565b95945050505050565b60006020820190506108c3600083018461085a565b92915050565b7f4e487b7100000000000000000000000000000000000000000000000000000000600052602160045260246000fd5b600060208201905061090d6000830184610800565b92915050565b6000604082019050610928600083018561085a565b610935602083018461085a565b9392505050565b610945816105da565b82525050565b6000602082019050610960600083018461093c565b92915050565b600081905092915050565b82818337600083830152505050565b600061098c8385610966565b9350610999838584610971565b82840190509392505050565b60006109b2828486610980565b91508190509392505050565b60006080820190506109d360008301876107f1565b6109e06020830186610800565b6109ed604083018561085a565b6109fa60608301846107bd565b9594505050505056fea264697066735822122063c64400589b65da7e3721d00750939763a37d340ce8cd5fa18a71f385e6d69864736f6c63430008180033",
  "linkReferences": {},
  "deployedLinkReferences": {}
}