{
  "_format": "hh-sol-artifact-1",
  "contractName": "PackageRegistry",
  "sourceName": "contracts/PackageRegistry.sol",
  "abi": [
    {
      "inputs": [],
      "stateMutability": "nonpayable",
      "type": "constructor"
    },
    {
      "anonymous": false,
      "inputs": [
        {
          "indexed": true,
          "internalType": "bytes16",
          "name": "productId",
          "type": "bytes16"
        },
        {
          "indexed": false,
          "internalType": "bytes32",
          "name": "hash",
          "type": "bytes32"
        },
        {
          "indexed": false,
          "internalType": "address",
          "name": "createdBy",
          "type": "address"
        },
        {
          "indexed": false,
          "internalType": "uint256",
          "name": "createdAt",
          "type": "uint256"
        }
      ],
      "name": "ProductRegistered",
      "type": "event"
    },
    {
      "anonymous": false,
      "inputs": [
        {
          "indexed": true,
          "internalType": "bytes16",
          "name": "productId",
          "type": "bytes16"
        },
        {
          "indexed": false,
          "internalType": "bytes32",
          "name": "newHash",
          "type": "bytes32"
        },
        {
          "indexed": false,
          "internalType": "address",
          "name": "updatedBy",
          "type": "address"
        },
        {
          "indexed": false,
          "internalType": "uint256",
          "name": "updatedAt",
          "type": "uint256"
        }
      ],
      "name": "ProductUpdated",
      "type": "event"
    },
    {
      "inputs": [
        {
          "internalType": "bytes16",
          "name": "productId",
          "type": "bytes16"
        }
      ],
      "name": "getProduct",
      "outputs": [
        {
          "components": [
            {
              "internalType": "bytes32",
              "name": "hash",
              "type": "bytes32"
            },
            {
              "internalType": "uint256",
              "name": "createdAt",
              "type": "uint256"
            },
            {
              "internalType": "uint256",
              "name": "updatedAt",
              "type": "uint256"
            },
            {
              "internalType": "address",
              "name": "createdBy",
              "type": "address"
            },
            {
              "internalType": "address",
              "name": "updatedBy",
              "type": "address"
            }
          ],
          "internalType": "struct PackageRegistry.PackageMeta",
          "name": "",
          "type": "tuple"
        }
      ],
      "stateMutability": "view",
      "type": "function"
    },
    {
      "inputs": [],
      "name": "owner",
      "outputs": [
        {
          "internalType": "address",
          "name": "",
          "type": "address"
        }
      ],
      "stateMutability": "view",
      "type": "function"
    },
    {
      "inputs": [
        {
          "internalType": "bytes16",
          "name": "",
          "type": "bytes16"
        }
      ],
      "name": "packages",
      "outputs": [
        {
          "internalType": "bytes32",
          "name": "hash",
          "type": "bytes32"
        },
        {
          "internalType": "uint256",
          "name": "createdAt",
          "type": "uint256"
        },
        {
          "internalType": "uint256",
          "name": "updatedAt",
          "type": "uint256"
        },
        {
          "internalType": "address",
          "name": "createdBy",
          "type": "address"
        },
        {
          "internalType": "address",
          "name": "updatedBy",
          "type": "address"
        }
      ],
      "stateMutability": "view",
      "type": "function"
    },
    {
      "inputs": [
        {
          "internalType": "bytes16",
          "name": "productId",
          "type": "bytes16"
        },
        {
          "internalType": "bytes",
          "name": "canonicalPayload",
          "type": "bytes"
        }
      ],
      "name": "registerProduct",
      "outputs": [
        {
          "internalType": "bytes16",
          "name": "",
          "type": "bytes16"
        }
      ],
      "stateMutability": "nonpayable",
      "type": "function"
    },
    {
      "inputs": [
        {
          "internalType": "bytes16",
          "name": "productId",
          "type": "bytes16"
        },
        {
          "internalType": "bytes",
          "name": "canonicalPayload",
          "type": "bytes"
        }
      ],
      "name": "updateProduct",
      "outputs": [],
      "stateMutability": "nonpayable",
      "type": "function"
    }
  ],
  "bytecode": "0x608060405234801561001057600080fd5b50336000806101000a81548173ffffffffffffffffffffffffffffffffffffffff021916908373ffffffffffffffffffffffffffffffffffffffff160217905550610c31806100606000396000f3fe608060405234801561001057600080fd5b50600436106100575760003560e01c806360cc5b271461005c5780638da5cb5b1461008c57806390617167146100aa578063c6028ac0146100c6578063cc118cb6146100f6575b600080fd5b610076600480360381019061007191906107d6565b61012a565b60405161008391906108de565b60405180910390f35b6100946102c6565b6040516100a19190610908565b60405180910390f35b6100c460048036038101906100bf9190610988565b6102ea565b005b6100e060048036038101906100db9190610988565b61046d565b6040516100ed91906109f7565b60405180910390f35b610110600480360381019061010b91906107d6565b6106a0565b604051610121959493929190610a30565b60405180910390f35b610132610716565b600060016000846fffffffffffffffffffffffffffffffff19166fffffffffffffffffffffffffffffffff1916815260200190815260200160002060010154036101b1576040517f08c379a00000000000000000000000000000000000000000000000000000000081526004016101a890610ae0565b60405180910390fd5b60016000836fffffffffffffffffffffffffffffffff19166fffffffffffffffffffffffffffffffff191681526020019081526020016000206040518060a00160405290816000820154815260200160018201548152602001600282015481526020016003820160009054906101000a900473ffffffffffffffffffffffffffffffffffffffff1673ffffffffffffffffffffffffffffffffffffffff1673ffffffffffffffffffffffffffffffffffffffff1681526020016004820160009054906101000a900473ffffffffffffffffffffffffffffffffffffffff1673ffffffffffffffffffffffffffffffffffffffff1673ffffffffffffffffffffffffffffffffffffffff16815250509050919050565b60008054906101000a900473ffffffffffffffffffffffffffffffffffffffff1681565b600060016000856fffffffffffffffffffffffffffffffff19166fffffffffffffffffffffffffffffffff191681526020019081526020016000206001015403610369576040517f08c379a000000000000000000000000000000000000000000000000000000000815260040161036090610ae0565b60405180910390fd5b6000828260405161037b929190610b3f565b60405180910390209050600060016000866fffffffffffffffffffffffffffffffff19166fffffffffffffffffffffffffffffffff191681526020019081526020016000209050818160000181905550428160020181905550338160040160006101000a81548173ffffffffffffffffffffffffffffffffffffffff021916908373ffffffffffffffffffffffffffffffffffffffff160217905550846fffffffffffffffffffffffffffffffff19167f4dc5f8a3137d4461c8fa76937c9229a79c9804eb2e8a516a16d4ec793062ba3b83334260405161045e93929190610b58565b60405180910390a25050505050565b60008060016000866fffffffffffffffffffffffffffffffff19166fffffffffffffffffffffffffffffffff1916815260200190815260200160002060010154146104ed576040517f08c379a00000000000000000000000000000000000000000000000000000000081526004016104e490610bdb565b60405180910390fd5b600083836040516104ff929190610b3f565b604051809103902090506040518060a00160405280828152602001428152602001600081526020013373ffffffffffffffffffffffffffffffffffffffff168152602001600073ffffffffffffffffffffffffffffffffffffffff1681525060016000876fffffffffffffffffffffffffffffffff19166fffffffffffffffffffffffffffffffff1916815260200190815260200160002060008201518160000155602082015181600101556040820151816002015560608201518160030160006101000a81548173ffffffffffffffffffffffffffffffffffffffff021916908373ffffffffffffffffffffffffffffffffffffffff16021790555060808201518160040160006101000a81548173ffffffffffffffffffffffffffffffffffffffff021916908373ffffffffffffffffffffffffffffffffffffffff160217905550905050846fffffffffffffffffffffffffffffffff19167fa64d4e84bd4099c9a3f6cc51e9650793484b0829b3e2692bfacf4eafc68eea3982334260405161068d93929190610b58565b60405180910390a2849150509392505050565b60016020528060005260406000206000915090508060000154908060010154908060020154908060030160009054906101000a900473ffffffffffffffffffffffffffffffffffffffff16908060040160009054906101000a900473ffffffffffffffffffffffffffffffffffffffff16905085565b6040518060a00160405280600080191681526020016000815260200160008152602001600073ffffffffffffffffffffffffffffffffffffffff168152602001600073ffffffffffffffffffffffffffffffffffffffff1681525090565b600080fd5b600080fd5b60007fffffffffffffffffffffffffffffffff0000000000000000000000000000000082169050919050565b6107b38161077e565b81146107be57600080fd5b50565b6000813590506107d0816107aa565b92915050565b6000602082840312156107ec576107eb610774565b5b60006107fa848285016107c1565b91505092915050565b6000819050919050565b61081681610803565b82525050565b6000819050919050565b61082f8161081c565b82525050565b600073ffffffffffffffffffffffffffffffffffffffff82169050919050565b600061086082610835565b9050919050565b61087081610855565b82525050565b60a08201600082015161088c600085018261080d565b50602082015161089f6020850182610826565b5060408201516108b26040850182610826565b5060608201516108c56060850182610867565b5060808201516108d86080850182610867565b50505050565b600060a0820190506108f36000830184610876565b92915050565b61090281610855565b82525050565b600060208201905061091d60008301846108f9565b92915050565b600080fd5b600080fd5b600080fd5b60008083601f84011261094857610947610923565b5b8235905067ffffffffffffffff81111561096557610964610928565b5b6020830191508360018202830111156109815761098061092d565b5b9250929050565b6000806000604084860312156109a1576109a0610774565b5b60006109af868287016107c1565b935050602084013567ffffffffffffffff8111156109d0576109cf610779565b5b6109dc86828701610932565b92509250509250925092565b6109f18161077e565b82525050565b6000602082019050610a0c60008301846109e8565b92915050565b610a1b81610803565b82525050565b610a2a8161081c565b82525050565b600060a082019050610a456000830188610a12565b610a526020830187610a21565b610a5f6040830186610a21565b610a6c60608301856108f9565b610a7960808301846108f9565b9695505050505050565b600082825260208201905092915050565b7f5061636b61676520646f6573206e6f7420657869737400000000000000000000600082015250565b6000610aca601683610a83565b9150610ad582610a94565b602082019050919050565b60006020820190508181036000830152610af981610abd565b9050919050565b600081905092915050565b82818337600083830152505050565b6000610b268385610b00565b9350610b33838584610b0b565b82840190509392505050565b6000610b4c828486610b1a565b91508190509392505050565b6000606082019050610b6d6000830186610a12565b610b7a60208301856108f9565b610b876040830184610a21565b949350505050565b7f5061636b61676520616c72656164792065786973747300000000000000000000600082015250565b6000610bc5601683610a83565b9150610bd082610b8f565b602082019050919050565b60006020820190508181036000830152610bf481610bb8565b905091905056fea26469706673582212206ba8782a062b62bfde5ea86eabaf86319730f8a2740244479c76ebbe79134f6664736f6c63430008180033",
  "linkReferences": {},
  "deployedLinkReferences": {}
}