{
  "_format": "hh-sol-artifact-1",
  "contractName": "ConditionBreachRegistry",
  "sourceName": "contracts/ConditionBreachRegistry.sol",
  "abi": [
    {
      "anonymous": false,
      "inputs": [
        {
          "indexed": true,
          "internalType": "bytes16",
          "name": "breachId",
          "type": "bytes16"
        },
        {
          "indexed": true,
          "internalType": "bytes16",
          "name": "packageId",
          "type": "bytes16"
        },
        {
          "indexed": true,
          "internalType": "bytes16",
          "name": "messageId",
          "type": "bytes16"
        },
        {
          "indexed": false,
          "internalType": "bytes32",
          "name": "payloadHash",
          "type": "bytes32"
        },
        {
          "indexed": false,
          "internalType": "uint256",
          "name": "breachStartTime",
          "type": "uint256"
        },
        {
          "indexed": false,
          "internalType": "uint256",
          "name": "timestamp",
          "type": "uint256"
        },
        {
          "indexed": false,
          "internalType": "address",
          "name": "registeredBy",
          "type": "address"
        }
      ],
      "name": "ConditionBreachRegistered",
      "type": "event"
    },
    {
      "inputs": [
        {
          "internalType": "uint256",
          "name": "",
          "type": "uint256"
        }
      ],
      "name": "breachIds",
      "outputs": [
        {
          "internalType": "bytes16",
          "name": "",
          "type": "bytes16"
        }
      ],
      "stateMutability": "view",
      "type": "function"
    },
    {
      "inputs": [
        {
          "internalType": "bytes16",
          "name": "",
          "type": "bytes16"
        }
      ],
      "name": "conditionBreaches",
      "outputs": [
        {
          "internalType": "bytes16",
          "name": "breachId",
          "type": "bytes16"
        },
        {
          "internalType": "bytes16",
          "name": "packageId",
          "type": "bytes16"
        },
        {
          "internalType": "bytes16",
          "name": "messageId",
          "type": "bytes16"
        },
        {
          "internalType": "bytes32",
          "name": "payloadHash",
          "type": "bytes32"
        },
        {
          "internalType": "uint256",
          "name": "breachStartTime",
          "type": "uint256"
        },
        {
          "internalType": "uint256",
          "name": "timestamp",
          "type": "uint256"
        },
        {
          "internalType": "address",
          "name": "registeredBy",
          "type": "address"
        }
      ],
      "stateMutability": "view",
      "type": "function"
    },
    {
      "inputs": [
        {
          "internalType": "bytes16",
          "name": "_messageId",
          "type": "bytes16"
        }
      ],
      "name": "getBreachesByMessage",
      "outputs": [
        {
          "internalType": "bytes16[]",
          "name": "",
          "type": "bytes16[]"
        }
      ],
      "stateMutability": "view",
      "type": "function"
    },
    {
      "inputs": [
        {
          "internalType": "bytes16",
          "name": "_packageId",
          "type": "bytes16"
        }
      ],
      "name": "getBreachesByPackage",
      "outputs": [
        {
          "internalType": "bytes16[]",
          "name": "",
          "type": "bytes16[]"
        }
      ],
      "stateMutability": "view",
      "type": "function"
    },
    {
      "inputs": [
        {
          "internalType": "bytes16",
          "name": "_breachId",
          "type": "bytes16"
        }
      ],
      "name": "getConditionBreach",
      "outputs": [
        {
          "internalType": "bytes16",
          "name": "breachId",
          "type": "bytes16"
        },
        {
          "internalType": "bytes16",
          "name": "packageId",
          "type": "bytes16"
        },
        {
          "internalType": "bytes16",
          "name": "messageId",
          "type": "bytes16"
        },
        {
          "internalType": "bytes32",
          "name": "payloadHash",
          "type": "bytes32"
        },
        {
          "internalType": "uint256",
          "name": "breachStartTime",
          "type": "uint256"
        },
        {
          "internalType": "uint256",
          "name": "timestamp",
          "type": "uint256"
        },
        {
          "internalType": "address",
          "name": "registeredBy",
          "type": "address"
        }
      ],
      "stateMutability": "view",
      "type": "function"
    },
    {
      "inputs": [],
      "name": "getTotalBreaches",
      "outputs": [
        {
          "internalType": "uint256",
          "name": "",
          "type": "uint256"
        }
      ],
      "stateMutability": "view",
      "type": "function"
    },
    {
      "inputs": [
        {
          "internalType": "bytes16",
          "name": "_breachId",
          "type": "bytes16"
        },
        {
          "internalType": "bytes16",
          "name": "_packageId",
          "type": "bytes16"
        },
        {
          "internalType": "bytes16",
          "name": "_messageId",
          "type": "bytes16"
        },
        {
          "internalType": "bytes32",
          "name": "_payloadHash",
          "type": "bytes32"
        },
        {
          "internalType": "uint256",
          "name": "_breachStartTime",
          "type": "uint256"
        }
      ],
      "name": "registerConditionBreach",
      "outputs": [
        {
          "internalType": "bool",
          "name": "success",
          "type": "bool"
        },
        {
          "internalType": "bytes32",
          "name": "storedHash",
          "type": "bytes32"
        }
      ],
      "stateMutability": "nonpayable",
      "type": "function"
    },
    {
      "inputs": [
        {
          "internalType": "bytes16",
          "name": "_breachId",
          "type": "bytes16"
        },
        {
          "internalType": "bytes32",
          "name": "_payloadHash",
          "type": "bytes32"
        }
      ],
      "name": "verifyConditionBreach",
      "outputs": [
        {
          "internalType": "bool",
          "name": "",
          "type": "bool"
        }
      ],
      "stateMutability": "view",
      "type": "function"
    }
  ],
  "bytecode": "0x608060405234801561001057600080fd5b506117ba806100206000396000f3fe608060405234801561001057600080fd5b50600436106100885760003560e01c8063bf2fe4071161005b578063bf2fe40714610148578063c67c127114610178578063cb2fa089146101a8578063eed7a9f7146101d857610088565b806325f930f21461008d57806358dbab59146100ab5780635c887661146100e1578063b9f5db7e14610117575b600080fd5b610095610208565b6040516100a29190611026565b60405180910390f35b6100c560048036038101906100c0919061109e565b610215565b6040516100d89796959493929190611134565b60405180910390f35b6100fb60048036038101906100f6919061109e565b61042b565b60405161010e9796959493929190611134565b60405180910390f35b610131600480360381019061012c91906111fb565b6104b4565b60405161013f929190611291565b60405180910390f35b610162600480360381019061015d91906112ba565b6108e2565b60405161016f91906112fa565b60405180910390f35b610192600480360381019061018d919061109e565b610ac2565b60405161019f91906113d3565b60405180910390f35b6101c260048036038101906101bd91906113f5565b610d4c565b6040516101cf9190611422565b60405180910390f35b6101f260048036038101906101ed919061109e565b610d83565b6040516101ff91906113d3565b60405180910390f35b6000600180549050905090565b6000806000806000806000806000808a6fffffffffffffffffffffffffffffffff19166fffffffffffffffffffffffffffffffff191681526020019081526020016000206040518060e00160405290816000820160009054906101000a900460801b6fffffffffffffffffffffffffffffffff19166fffffffffffffffffffffffffffffffff191681526020016000820160109054906101000a900460801b6fffffffffffffffffffffffffffffffff19166fffffffffffffffffffffffffffffffff191681526020016001820160009054906101000a900460801b6fffffffffffffffffffffffffffffffff19166fffffffffffffffffffffffffffffffff191681526020016002820154815260200160038201548152602001600482015481526020016005820160009054906101000a900473ffffffffffffffffffffffffffffffffffffffff1673ffffffffffffffffffffffffffffffffffffffff1673ffffffffffffffffffffffffffffffffffffffff16815250509050600060801b81600001516fffffffffffffffffffffffffffffffff1916036103ee576040517f08c379a00000000000000000000000000000000000000000000000000000000081526004016103e59061149a565b60405180910390fd5b806000015181602001518260400151836060015184608001518560a001518660c00151975097509750975097509750975050919395979092949650565b60006020528060005260406000206000915090508060000160009054906101000a900460801b908060000160109054906101000a900460801b908060010160009054906101000a900460801b908060020154908060030154908060040154908060050160009054906101000a900473ffffffffffffffffffffffffffffffffffffffff16905087565b600080600060801b876fffffffffffffffffffffffffffffffff191603610510576040517f08c379a000000000000000000000000000000000000000000000000000000000815260040161050790611506565b60405180910390fd5b600060801b866fffffffffffffffffffffffffffffffff191603610569576040517f08c379a000000000000000000000000000000000000000000000000000000000815260040161056090611572565b60405180910390fd5b6000801b84036105ae576040517f08c379a00000000000000000000000000000000000000000000000000000000081526004016105a5906115de565b60405180910390fd5b600060801b600080896fffffffffffffffffffffffffffffffff19166fffffffffffffffffffffffffffffffff1916815260200190815260200160002060000160009054906101000a900460801b6fffffffffffffffffffffffffffffffff19161461064f576040517f08c379a00000000000000000000000000000000000000000000000000000000081526004016106469061164a565b60405180910390fd5b6040518060e00160405280886fffffffffffffffffffffffffffffffff19168152602001876fffffffffffffffffffffffffffffffff19168152602001866fffffffffffffffffffffffffffffffff191681526020018581526020018481526020014281526020013373ffffffffffffffffffffffffffffffffffffffff16815250600080896fffffffffffffffffffffffffffffffff19166fffffffffffffffffffffffffffffffff1916815260200190815260200160002060008201518160000160006101000a8154816fffffffffffffffffffffffffffffffff021916908360801c021790555060208201518160000160106101000a8154816fffffffffffffffffffffffffffffffff021916908360801c021790555060408201518160010160006101000a8154816fffffffffffffffffffffffffffffffff021916908360801c0217905550606082015181600201556080820151816003015560a0820151816004015560c08201518160050160006101000a81548173ffffffffffffffffffffffffffffffffffffffff021916908373ffffffffffffffffffffffffffffffffffffffff16021790555090505060018790806001815401808255809150506001900390600052602060002090600291828204019190066010029091909190916101000a8154816fffffffffffffffffffffffffffffffff021916908360801c0217905550846fffffffffffffffffffffffffffffffff1916866fffffffffffffffffffffffffffffffff1916886fffffffffffffffffffffffffffffffff19167fdd472e9066c8c0d0b95b76863b890685feb15b9ad819fab517602f1b3bf9cf1c878742336040516108c9949392919061166a565b60405180910390a4600184915091509550959350505050565b600080600080856fffffffffffffffffffffffffffffffff19166fffffffffffffffffffffffffffffffff191681526020019081526020016000206040518060e00160405290816000820160009054906101000a900460801b6fffffffffffffffffffffffffffffffff19166fffffffffffffffffffffffffffffffff191681526020016000820160109054906101000a900460801b6fffffffffffffffffffffffffffffffff19166fffffffffffffffffffffffffffffffff191681526020016001820160009054906101000a900460801b6fffffffffffffffffffffffffffffffff19166fffffffffffffffffffffffffffffffff191681526020016002820154815260200160038201548152602001600482015481526020016005820160009054906101000a900473ffffffffffffffffffffffffffffffffffffffff1673ffffffffffffffffffffffffffffffffffffffff1673ffffffffffffffffffffffffffffffffffffffff16815250509050600060801b81600001516fffffffffffffffffffffffffffffffff191603610ab2576040517f08c379a0000000000000000000000000000000000000000000000000000000008152600401610aa99061149a565b60405180910390fd5b8281606001511491505092915050565b60606000805b600180549050811015610b9c57836fffffffffffffffffffffffffffffffff191660008060018481548110610b0057610aff6116af565b5b90600052602060002090600291828204019190066010029054906101000a900460801b6fffffffffffffffffffffffffffffffff19166fffffffffffffffffffffffffffffffff1916815260200190815260200160002060010160009054906101000a900460801b6fffffffffffffffffffffffffffffffff191603610b8f578180610b8b9061170d565b9250505b8080600101915050610ac8565b5060008167ffffffffffffffff811115610bb957610bb8611755565b5b604051908082528060200260200182016040528015610be75781602001602082028036833780820191505090505b5090506000805b600180549050811015610d4057856fffffffffffffffffffffffffffffffff191660008060018481548110610c2657610c256116af565b5b90600052602060002090600291828204019190066010029054906101000a900460801b6fffffffffffffffffffffffffffffffff19166fffffffffffffffffffffffffffffffff1916815260200190815260200160002060010160009054906101000a900460801b6fffffffffffffffffffffffffffffffff191603610d335760018181548110610cba57610cb96116af565b5b90600052602060002090600291828204019190066010029054906101000a900460801b838381518110610cf057610cef6116af565b5b60200260200101906fffffffffffffffffffffffffffffffff191690816fffffffffffffffffffffffffffffffff1916815250508180610d2f9061170d565b9250505b8080600101915050610bee565b50819350505050919050565b60018181548110610d5c57600080fd5b9060005260206000209060029182820401919006601002915054906101000a900460801b81565b60606000805b600180549050811015610e5d57836fffffffffffffffffffffffffffffffff191660008060018481548110610dc157610dc06116af565b5b90600052602060002090600291828204019190066010029054906101000a900460801b6fffffffffffffffffffffffffffffffff19166fffffffffffffffffffffffffffffffff1916815260200190815260200160002060000160109054906101000a900460801b6fffffffffffffffffffffffffffffffff191603610e50578180610e4c9061170d565b9250505b8080600101915050610d89565b5060008167ffffffffffffffff811115610e7a57610e79611755565b5b604051908082528060200260200182016040528015610ea85781602001602082028036833780820191505090505b5090506000805b60018054905081101561100157856fffffffffffffffffffffffffffffffff191660008060018481548110610ee757610ee66116af565b5b90600052602060002090600291828204019190066010029054906101000a900460801b6fffffffffffffffffffffffffffffffff19166fffffffffffffffffffffffffffffffff1916815260200190815260200160002060000160109054906101000a900460801b6fffffffffffffffffffffffffffffffff191603610ff45760018181548110610f7b57610f7a6116af565b5b90600052602060002090600291828204019190066010029054906101000a900460801b838381518110610fb157610fb06116af565b5b60200260200101906fffffffffffffffffffffffffffffffff191690816fffffffffffffffffffffffffffffffff1916815250508180610ff09061170d565b9250505b8080600101915050610eaf565b50819350505050919050565b6000819050919050565b6110208161100d565b82525050565b600060208201905061103b6000830184611017565b92915050565b600080fd5b60007fffffffffffffffffffffffffffffffff0000000000000000000000000000000082169050919050565b61107b81611046565b811461108657600080fd5b50565b60008135905061109881611072565b92915050565b6000602082840312156110b4576110b3611041565b5b60006110c284828501611089565b91505092915050565b6110d481611046565b82525050565b6000819050919050565b6110ed816110da565b82525050565b600073ffffffffffffffffffffffffffffffffffffffff82169050919050565b600061111e826110f3565b9050919050565b61112e81611113565b82525050565b600060e082019050611149600083018a6110cb565b61115660208301896110cb565b61116360408301886110cb565b61117060608301876110e4565b61117d6080830186611017565b61118a60a0830185611017565b61119760c0830184611125565b98975050505050505050565b6111ac816110da565b81146111b757600080fd5b50565b6000813590506111c9816111a3565b92915050565b6111d88161100d565b81146111e357600080fd5b50565b6000813590506111f5816111cf565b92915050565b600080600080600060a0868803121561121757611216611041565b5b600061122588828901611089565b955050602061123688828901611089565b945050604061124788828901611089565b9350506060611258888289016111ba565b9250506080611269888289016111e6565b9150509295509295909350565b60008115159050919050565b61128b81611276565b82525050565b60006040820190506112a66000830185611282565b6112b360208301846110e4565b9392505050565b600080604083850312156112d1576112d0611041565b5b60006112df85828601611089565b92505060206112f0858286016111ba565b9150509250929050565b600060208201905061130f6000830184611282565b92915050565b600081519050919050565b600082825260208201905092915050565b6000819050602082019050919050565b61134a81611046565b82525050565b600061135c8383611341565b60208301905092915050565b6000602082019050919050565b600061138082611315565b61138a8185611320565b935061139583611331565b8060005b838110156113c65781516113ad8882611350565b97506113b883611368565b925050600181019050611399565b5085935050505092915050565b600060208201905081810360008301526113ed8184611375565b905092915050565b60006020828403121561140b5761140a611041565b5b6000611419848285016111e6565b91505092915050565b600060208201905061143760008301846110cb565b92915050565b600082825260208201905092915050565b7f427265616368206e6f7420666f756e6400000000000000000000000000000000600082015250565b600061148460108361143d565b915061148f8261144e565b602082019050919050565b600060208201905081810360008301526114b381611477565b9050919050565b7f4272656163682049442063616e6e6f74206265207a65726f0000000000000000600082015250565b60006114f060188361143d565b91506114fb826114ba565b602082019050919050565b6000602082019050818103600083015261151f816114e3565b9050919050565b7f5061636b6167652049442063616e6e6f74206265207a65726f00000000000000600082015250565b600061155c60198361143d565b915061156782611526565b602082019050919050565b6000602082019050818103600083015261158b8161154f565b9050919050565b7f5061796c6f616420686173682063616e6e6f74206265207a65726f0000000000600082015250565b60006115c8601b8361143d565b91506115d382611592565b602082019050919050565b600060208201905081810360008301526115f7816115bb565b9050919050565b7f42726561636820616c7265616479207265676973746572656400000000000000600082015250565b600061163460198361143d565b915061163f826115fe565b602082019050919050565b6000602082019050818103600083015261166381611627565b9050919050565b600060808201905061167f60008301876110e4565b61168c6020830186611017565b6116996040830185611017565b6116a66060830184611125565b95945050505050565b7f4e487b7100000000000000000000000000000000000000000000000000000000600052603260045260246000fd5b7f4e487b7100000000000000000000000000000000000000000000000000000000600052601160045260246000fd5b60006117188261100d565b91507fffffffffffffffffffffffffffffffffffffffffffffffffffffffffffffffff820361174a576117496116de565b5b600182019050919050565b7f4e487b7100000000000000000000000000000000000000000000000000000000600052604160045260246000fdfea26469706673582212204733c51486b7eade83a140e45d7f67e3ecde57cfcc0da2ed4c4ff60c853e2f7964736f6c63430008180033",
  "linkReferences": {},
  "deployedLinkReferences": {}
}