{
  "_format": "hh-sol-artifact-1",
  "contractName": "BatchRegistry",
  "sourceName": "contracts/BatchRegistry.sol",
  "abi": [
    {
      "inputs": [],
      "stateMutability": "nonpayable",
      "type": "constructor"
    },
    {
      "anonymous": false,
      "inputs": [
        {
          "indexed": true,
          "internalType": "bytes16",
          "name": "batchId",
          "type": "bytes16"
        },
        {
          "indexed": false,
          "internalType": "bytes32",
          "name": "hash",
          "type": "bytes32"
        },
        {
          "indexed": false,
          "internalType": "address",
          "name": "createdBy",
          "type": "address"
        },
        {
          "indexed": false,
          "internalType": "uint256",
          "name": "createdAt",
          "type": "uint256"
        }
      ],
      "name": "BatchRegistered",
      "type": "event"
    },
    {
      "anonymous": false,
      "inputs": [
        {
          "indexed": true,
          "internalType": "bytes16",
          "name": "batchId",
          "type": "bytes16"
        },
        {
          "indexed": false,
          "internalType": "bytes32",
          "name": "newHash",
          "type": "bytes32"
        },
        {
          "indexed": false,
          "internalType": "address",
          "name": "updatedBy",
          "type": "address"
        },
        {
          "indexed": false,
          "internalType": "uint256",
          "name": "updatedAt",
          "type": "uint256"
        }
      ],
      "name": "BatchUpdated",
      "type": "event"
    },
    {
      "inputs": [
        {
          "internalType": "bytes16",
          "name": "",
          "type": "bytes16"
        }
      ],
      "name": "batches",
      "outputs": [
        {
          "internalType": "bytes32",
          "name": "hash",
          "type": "bytes32"
        },
        {
          "internalType": "uint256",
          "name": "createdAt",
          "type": "uint256"
        },
        {
          "internalType": "uint256",
          "name": "updatedAt",
          "type": "uint256"
        },
        {
          "internalType": "address",
          "name": "createdBy",
          "type": "address"
        },
        {
          "internalType": "address",
          "name": "updatedBy",
          "type": "address"
        }
      ],
      "stateMutability": "view",
      "type": "function"
    },
    {
      "inputs": [
        {
          "internalType": "bytes16",
          "name": "batchId",
          "type": "bytes16"
        }
      ],
      "name": "getBatch",
      "outputs": [
        {
          "components": [
            {
              "internalType": "bytes32",
              "name": "hash",
              "type": "bytes32"
            },
            {
              "internalType": "uint256",
              "name": "createdAt",
              "type": "uint256"
            },
            {
              "internalType": "uint256",
              "name": "updatedAt",
              "type": "uint256"
            },
            {
              "internalType": "address",
              "name": "createdBy",
              "type": "address"
            },
            {
              "internalType": "address",
              "name": "updatedBy",
              "type": "address"
            }
          ],
          "internalType": "struct BatchRegistry.BatchMeta",
          "name": "",
          "type": "tuple"
        }
      ],
      "stateMutability": "view",
      "type": "function"
    },
    {
      "inputs": [],
      "name": "owner",
      "outputs": [
        {
          "internalType": "address",
          "name": "",
          "type": "address"
        }
      ],
      "stateMutability": "view",
      "type": "function"
    },
    {
      "inputs": [
        {
          "internalType": "bytes16",
          "name": "batchId",
          "type": "bytes16"
        },
        {
          "internalType": "bytes",
          "name": "canonicalPayload",
          "type": "bytes"
        }
      ],
      "name": "registerBatch",
      "outputs": [
        {
          "internalType": "bytes16",
          "name": "",
          "type": "bytes16"
        }
      ],
      "stateMutability": "nonpayable",
      "type": "function"
    },
    {
      "inputs": [
        {
          "internalType": "bytes16",
          "name": "batchId",
          "type": "bytes16"
        },
        {
          "internalType": "bytes",
          "name": "canonicalPayload",
          "type": "bytes"
        }
      ],
      "name": "updateBatch",
      "outputs": [],
      "stateMutability": "nonpayable",
      "type": "function"
    }
  ],
  "bytecode": "0x608060405234801561001057600080fd5b50336000806101000a81548173ffffffffffffffffffffffffffffffffffffffff021916908373ffffffffffffffffffffffffffffffffffffffff160217905550610c31806100606000396000f3fe608060405234801561001057600080fd5b50600436106100575760003560e01c80638da5cb5b1461005c578063bcfc35d51461007a578063cb831d16146100aa578063df1e74b5146100de578063e655806e146100fa575b600080fd5b61006461012a565b60405161007191906107b5565b60405180910390f35b610094600480360381019061008f9190610897565b61014e565b6040516100a19190610906565b60405180910390f35b6100c460048036038101906100bf9190610921565b610381565b6040516100d5959493929190610980565b60405180910390f35b6100f860048036038101906100f39190610897565b6103f7565b005b610114600480360381019061010f9190610921565b61057a565b6040516101219190610a68565b60405180910390f35b60008054906101000a900473ffffffffffffffffffffffffffffffffffffffff1681565b60008060016000866fffffffffffffffffffffffffffffffff19166fffffffffffffffffffffffffffffffff1916815260200190815260200160002060010154146101ce576040517f08c379a00000000000000000000000000000000000000000000000000000000081526004016101c590610ae0565b60405180910390fd5b600083836040516101e0929190610b3f565b604051809103902090506040518060a00160405280828152602001428152602001600081526020013373ffffffffffffffffffffffffffffffffffffffff168152602001600073ffffffffffffffffffffffffffffffffffffffff1681525060016000876fffffffffffffffffffffffffffffffff19166fffffffffffffffffffffffffffffffff1916815260200190815260200160002060008201518160000155602082015181600101556040820151816002015560608201518160030160006101000a81548173ffffffffffffffffffffffffffffffffffffffff021916908373ffffffffffffffffffffffffffffffffffffffff16021790555060808201518160040160006101000a81548173ffffffffffffffffffffffffffffffffffffffff021916908373ffffffffffffffffffffffffffffffffffffffff160217905550905050846fffffffffffffffffffffffffffffffff19167f750fac6043024bd31e8faaa592f4dc541b540923f4e2b00ee09233f6994fc70682334260405161036e93929190610b58565b60405180910390a2849150509392505050565b60016020528060005260406000206000915090508060000154908060010154908060020154908060030160009054906101000a900473ffffffffffffffffffffffffffffffffffffffff16908060040160009054906101000a900473ffffffffffffffffffffffffffffffffffffffff16905085565b600060016000856fffffffffffffffffffffffffffffffff19166fffffffffffffffffffffffffffffffff191681526020019081526020016000206001015403610476576040517f08c379a000000000000000000000000000000000000000000000000000000000815260040161046d90610bdb565b60405180910390fd5b60008282604051610488929190610b3f565b60405180910390209050600060016000866fffffffffffffffffffffffffffffffff19166fffffffffffffffffffffffffffffffff191681526020019081526020016000209050818160000181905550428160020181905550338160040160006101000a81548173ffffffffffffffffffffffffffffffffffffffff021916908373ffffffffffffffffffffffffffffffffffffffff160217905550846fffffffffffffffffffffffffffffffff19167f11ca32294b4dfd9f9e239ad6241bb67ecc39bd2efd77ea13113701745dd8af2183334260405161056b93929190610b58565b60405180910390a25050505050565b610582610716565b600060016000846fffffffffffffffffffffffffffffffff19166fffffffffffffffffffffffffffffffff191681526020019081526020016000206001015403610601576040517f08c379a00000000000000000000000000000000000000000000000000000000081526004016105f890610bdb565b60405180910390fd5b60016000836fffffffffffffffffffffffffffffffff19166fffffffffffffffffffffffffffffffff191681526020019081526020016000206040518060a00160405290816000820154815260200160018201548152602001600282015481526020016003820160009054906101000a900473ffffffffffffffffffffffffffffffffffffffff1673ffffffffffffffffffffffffffffffffffffffff1673ffffffffffffffffffffffffffffffffffffffff1681526020016004820160009054906101000a900473ffffffffffffffffffffffffffffffffffffffff1673ffffffffffffffffffffffffffffffffffffffff1673ffffffffffffffffffffffffffffffffffffffff16815250509050919050565b6040518060a00160405280600080191681526020016000815260200160008152602001600073ffffffffffffffffffffffffffffffffffffffff168152602001600073ffffffffffffffffffffffffffffffffffffffff1681525090565b600073ffffffffffffffffffffffffffffffffffffffff82169050919050565b600061079f82610774565b9050919050565b6107af81610794565b82525050565b60006020820190506107ca60008301846107a6565b92915050565b600080fd5b600080fd5b60007fffffffffffffffffffffffffffffffff0000000000000000000000000000000082169050919050565b61080f816107da565b811461081a57600080fd5b50565b60008135905061082c81610806565b92915050565b600080fd5b600080fd5b600080fd5b60008083601f84011261085757610856610832565b5b8235905067ffffffffffffffff81111561087457610873610837565b5b6020830191508360018202830111156108905761088f61083c565b5b9250929050565b6000806000604084860312156108b0576108af6107d0565b5b60006108be8682870161081d565b935050602084013567ffffffffffffffff8111156108df576108de6107d5565b5b6108eb86828701610841565b92509250509250925092565b610900816107da565b82525050565b600060208201905061091b60008301846108f7565b92915050565b600060208284031215610937576109366107d0565b5b60006109458482850161081d565b91505092915050565b6000819050919050565b6109618161094e565b82525050565b6000819050919050565b61097a81610967565b82525050565b600060a0820190506109956000830188610958565b6109a26020830187610971565b6109af6040830186610971565b6109bc60608301856107a6565b6109c960808301846107a6565b9695505050505050565b6109dc8161094e565b82525050565b6109eb81610967565b82525050565b6109fa81610794565b82525050565b60a082016000820151610a1660008501826109d3565b506020820151610a2960208501826109e2565b506040820151610a3c60408501826109e2565b506060820151610a4f60608501826109f1565b506080820151610a6260808501826109f1565b50505050565b600060a082019050610a7d6000830184610a00565b92915050565b600082825260208201905092915050565b7f426174636820616c726561647920657869737473000000000000000000000000600082015250565b6000610aca601483610a83565b9150610ad582610a94565b602082019050919050565b60006020820190508181036000830152610af981610abd565b9050919050565b600081905092915050565b82818337600083830152505050565b6000610b268385610b00565b9350610b33838584610b0b565b82840190509392505050565b6000610b4c828486610b1a565b91508190509392505050565b6000606082019050610b6d6000830186610958565b610b7a60208301856107a6565b610b876040830184610971565b949350505050565b7f426174636820646f6573206e6f74206578697374000000000000000000000000600082015250565b6000610bc5601483610a83565b9150610bd082610b8f565b602082019050919050565b60006020820190508181036000830152610bf481610bb8565b905091905056fea2646970667358221220fd07218b206a240bebfc88342ed256dd4c43a452e2ead4e435022f1096f2c90064736f6c63430008180033",
  "linkReferences": {},
  "deployedLinkReferences": {}
}