{
  "_format": "hh-sol-artifact-1",
  "contractName": "SensorDataBreachRegistry",
  "sourceName": "contracts/SensorDataBreachRegistry.sol",
  "abi": [
    {
      "inputs": [],
      "stateMutability": "nonpayable",
      "type": "constructor"
    },
    {
      "anonymous": false,
      "inputs": [
        {
          "indexed": true,
          "internalType": "bytes16",
          "name": "breachId",
          "type": "bytes16"
        },
        {
          "indexed": true,
          "internalType": "bytes16",
          "name": "manufacturerId",
          "type": "bytes16"
        },
        {
          "indexed": true,
          "internalType": "bytes16",
          "name": "packageId",
          "type": "bytes16"
        },
        {
          "indexed": false,
          "internalType": "bytes16",
          "name": "sensorDataId",
          "type": "bytes16"
        },
        {
          "indexed": false,
          "internalType": "bytes32",
          "name": "hash",
          "type": "bytes32"
        },
        {
          "indexed": false,
          "internalType": "address",
          "name": "createdBy",
          "type": "address"
        },
        {
          "indexed": false,
          "internalType": "uint256",
          "name": "createdAt",
          "type": "uint256"
        }
      ],
      "name": "SensorDataBreachRegistered",
      "type": "event"
    },
    {
      "inputs": [
        {
          "internalType": "bytes16",
          "name": "",
          "type": "bytes16"
        }
      ],
      "name": "breaches",
      "outputs": [
        {
          "internalType": "bytes32",
          "name": "hash",
          "type": "bytes32"
        },
        {
          "internalType": "uint256",
          "name": "createdAt",
          "type": "uint256"
        },
        {
          "internalType": "address",
          "name": "createdBy",
          "type": "address"
        }
      ],
      "stateMutability": "view",
      "type": "function"
    },
    {
      "inputs": [
        {
          "internalType": "bytes16",
          "name": "breachId",
          "type": "bytes16"
        }
      ],
      "name": "getSensorDataBreach",
      "outputs": [
        {
          "components": [
            {
              "internalType": "bytes32",
              "name": "hash",
              "type": "bytes32"
            },
            {
              "internalType": "uint256",
              "name": "createdAt",
              "type": "uint256"
            },
            {
              "internalType": "address",
              "name": "createdBy",
              "type": "address"
            }
          ],
          "internalType": "struct SensorDataBreachRegistry.BreachMeta",
          "name": "",
          "type": "tuple"
        }
      ],
      "stateMutability": "view",
      "type": "function"
    },
    {
      "inputs": [],
      "name": "owner",
      "outputs": [
        {
          "internalType": "address",
          "name": "",
          "type": "address"
        }
      ],
      "stateMutability": "view",
      "type": "function"
    },
    {
      "inputs": [
        {
          "internalType": "bytes16",
          "name": "breachId",
          "type": "bytes16"
        },
        {
          "internalType": "bytes16",
          "name": "manufacturerId",
          "type": "bytes16"
        },
        {
          "internalType": "bytes16",
          "name": "packageId",
          "type": "bytes16"
        },
        {
          "internalType": "bytes16",
          "name": "sensorDataId",
          "type": "bytes16"
        },
        {
          "internalType": "bytes",
          "name": "canonicalPayload",
          "type": "bytes"
        }
      ],
      "name": "registerSensorDataBreach",
      "outputs": [],
      "stateMutability": "nonpayable",
      "type": "function"
    }
  ],
  "bytecode": "0x608060405234801561001057600080fd5b50336000806101000a81548173ffffffffffffffffffffffffffffffffffffffff021916908373ffffffffffffffffffffffffffffffffffffffff1602179055506109aa806100606000396000f3fe608060405234801561001057600080fd5b506004361061004c5760003560e01c80630fe53281146100515780638da5cb5b1461006d578063a8ffe2741461008b578063b0b1e0a3146100bb575b600080fd5b61006b6004803603810190610066919061057d565b6100ed565b005b6100756102d2565b6040516100829190610658565b60405180910390f35b6100a560048036038101906100a09190610673565b6102f6565b6040516100b29190610723565b60405180910390f35b6100d560048036038101906100d09190610673565b610432565b6040516100e49392919061075c565b60405180910390f35b600060016000886fffffffffffffffffffffffffffffffff19166fffffffffffffffffffffffffffffffff19168152602001908152602001600020600101541461016c576040517f08c379a000000000000000000000000000000000000000000000000000000000815260040161016390610816565b60405180910390fd5b6000828260405161017e929190610875565b6040518091039020905060405180606001604052808281526020014281526020013373ffffffffffffffffffffffffffffffffffffffff1681525060016000896fffffffffffffffffffffffffffffffff19166fffffffffffffffffffffffffffffffff19168152602001908152602001600020600082015181600001556020820151816001015560408201518160020160006101000a81548173ffffffffffffffffffffffffffffffffffffffff021916908373ffffffffffffffffffffffffffffffffffffffff160217905550905050846fffffffffffffffffffffffffffffffff1916866fffffffffffffffffffffffffffffffff1916886fffffffffffffffffffffffffffffffff19167f9083b167c47eb9e6dc1fda2eccfe5c2224e4fe1dde90a4a5f98bc34cd9e470c7878533426040516102c1949392919061089d565b60405180910390a450505050505050565b60008054906101000a900473ffffffffffffffffffffffffffffffffffffffff1681565b6102fe61047c565b600060016000846fffffffffffffffffffffffffffffffff19166fffffffffffffffffffffffffffffffff19168152602001908152602001600020600101540361037d576040517f08c379a000000000000000000000000000000000000000000000000000000000815260040161037490610954565b60405180910390fd5b60016000836fffffffffffffffffffffffffffffffff19166fffffffffffffffffffffffffffffffff1916815260200190815260200160002060405180606001604052908160008201548152602001600182015481526020016002820160009054906101000a900473ffffffffffffffffffffffffffffffffffffffff1673ffffffffffffffffffffffffffffffffffffffff1673ffffffffffffffffffffffffffffffffffffffff16815250509050919050565b60016020528060005260406000206000915090508060000154908060010154908060020160009054906101000a900473ffffffffffffffffffffffffffffffffffffffff16905083565b60405180606001604052806000801916815260200160008152602001600073ffffffffffffffffffffffffffffffffffffffff1681525090565b600080fd5b600080fd5b60007fffffffffffffffffffffffffffffffff0000000000000000000000000000000082169050919050565b6104f5816104c0565b811461050057600080fd5b50565b600081359050610512816104ec565b92915050565b600080fd5b600080fd5b600080fd5b60008083601f84011261053d5761053c610518565b5b8235905067ffffffffffffffff81111561055a5761055961051d565b5b60208301915083600182028301111561057657610575610522565b5b9250929050565b60008060008060008060a0878903121561059a576105996104b6565b5b60006105a889828a01610503565b96505060206105b989828a01610503565b95505060406105ca89828a01610503565b94505060606105db89828a01610503565b935050608087013567ffffffffffffffff8111156105fc576105fb6104bb565b5b61060889828a01610527565b92509250509295509295509295565b600073ffffffffffffffffffffffffffffffffffffffff82169050919050565b600061064282610617565b9050919050565b61065281610637565b82525050565b600060208201905061066d6000830184610649565b92915050565b600060208284031215610689576106886104b6565b5b600061069784828501610503565b91505092915050565b6000819050919050565b6106b3816106a0565b82525050565b6000819050919050565b6106cc816106b9565b82525050565b6106db81610637565b82525050565b6060820160008201516106f760008501826106aa565b50602082015161070a60208501826106c3565b50604082015161071d60408501826106d2565b50505050565b600060608201905061073860008301846106e1565b92915050565b610747816106a0565b82525050565b610756816106b9565b82525050565b6000606082019050610771600083018661073e565b61077e602083018561074d565b61078b6040830184610649565b949350505050565b600082825260208201905092915050565b7f53656e736f7220646174612062726561636820616c726561647920657869737460008201527f7300000000000000000000000000000000000000000000000000000000000000602082015250565b6000610800602183610793565b915061080b826107a4565b604082019050919050565b6000602082019050818103600083015261082f816107f3565b9050919050565b600081905092915050565b82818337600083830152505050565b600061085c8385610836565b9350610869838584610841565b82840190509392505050565b6000610882828486610850565b91508190509392505050565b610897816104c0565b82525050565b60006080820190506108b2600083018761088e565b6108bf602083018661073e565b6108cc6040830185610649565b6108d9606083018461074d565b95945050505050565b7f53656e736f7220646174612062726561636820646f6573206e6f74206578697360008201527f7400000000000000000000000000000000000000000000000000000000000000602082015250565b600061093e602183610793565b9150610949826108e2565b604082019050919050565b6000602082019050818103600083015261096d81610931565b905091905056fea2646970667358221220b42a35e394dac49ec55761199ab92ddd3b60ccc08ee4ec98f6a15d7c9f9bdf3f64736f6c63430008180033",
  "linkReferences": {},
  "deployedLinkReferences": {}
}