{
  "_format": "hh-sol-artifact-1",
  "contractName": "SupplyChain",
  "sourceName": "contracts/SupplyChain.sol",
  "abi": [
    {
      "inputs": [],
      "stateMutability": "nonpayable",
      "type": "constructor"
    },
    {
      "anonymous": false,
      "inputs": [
        {
          "indexed": true,
          "internalType": "uint256",
          "name": "productId",
          "type": "uint256"
        },
        {
          "indexed": false,
          "internalType": "bytes32",
          "name": "hash",
          "type": "bytes32"
        },
        {
          "indexed": false,
          "internalType": "address",
          "name": "creator",
          "type": "address"
        },
        {
          "indexed": false,
          "internalType": "uint256",
          "name": "timestamp",
          "type": "uint256"
        }
      ],
      "name": "BatchStored",
      "type": "event"
    },
    {
      "anonymous": false,
      "inputs": [
        {
          "indexed": true,
          "internalType": "uint256",
          "name": "productId",
          "type": "uint256"
        },
        {
          "indexed": false,
          "internalType": "bytes32",
          "name": "hash",
          "type": "bytes32"
        },
        {
          "indexed": false,
          "internalType": "address",
          "name": "creator",
          "type": "address"
        },
        {
          "indexed": false,
          "internalType": "uint256",
          "name": "timestamp",
          "type": "uint256"
        }
      ],
      "name": "ProductStored",
      "type": "event"
    },
    {
      "anonymous": false,
      "inputs": [
        {
          "indexed": false,
          "internalType": "address",
          "name": "user",
          "type": "address"
        },
        {
          "indexed": false,
          "internalType": "enum SupplyChain.Role",
          "name": "role",
          "type": "uint8"
        },
        {
          "indexed": false,
          "internalType": "bytes32",
          "name": "detailsHash",
          "type": "bytes32"
        }
      ],
      "name": "UserRegistered",
      "type": "event"
    },
    {
      "anonymous": false,
      "inputs": [
        {
          "indexed": false,
          "internalType": "address",
          "name": "user",
          "type": "address"
        }
      ],
      "name": "UserRevoked",
      "type": "event"
    },
    {
      "inputs": [
        {
          "internalType": "uint256",
          "name": "",
          "type": "uint256"
        }
      ],
      "name": "batches",
      "outputs": [
        {
          "internalType": "bytes32",
          "name": "hash",
          "type": "bytes32"
        },
        {
          "internalType": "uint256",
          "name": "timestamp",
          "type": "uint256"
        },
        {
          "internalType": "address",
          "name": "creator",
          "type": "address"
        }
      ],
      "stateMutability": "view",
      "type": "function"
    },
    {
      "inputs": [
        {
          "internalType": "uint256",
          "name": "productId",
          "type": "uint256"
        }
      ],
      "name": "getBatch",
      "outputs": [
        {
          "internalType": "bytes32",
          "name": "",
          "type": "bytes32"
        },
        {
          "internalType": "uint256",
          "name": "",
          "type": "uint256"
        },
        {
          "internalType": "address",
          "name": "",
          "type": "address"
        }
      ],
      "stateMutability": "view",
      "type": "function"
    },
    {
      "inputs": [
        {
          "internalType": "uint256",
          "name": "productId",
          "type": "uint256"
        }
      ],
      "name": "getProduct",
      "outputs": [
        {
          "internalType": "bytes32",
          "name": "",
          "type": "bytes32"
        },
        {
          "internalType": "uint256",
          "name": "",
          "type": "uint256"
        },
        {
          "internalType": "address",
          "name": "",
          "type": "address"
        }
      ],
      "stateMutability": "view",
      "type": "function"
    },
    {
      "inputs": [],
      "name": "owner",
      "outputs": [
        {
          "internalType": "address",
          "name": "",
          "type": "address"
        }
      ],
      "stateMutability": "view",
      "type": "function"
    },
    {
      "inputs": [
        {
          "internalType": "uint256",
          "name": "",
          "type": "uint256"
        }
      ],
      "name": "products",
      "outputs": [
        {
          "internalType": "bytes32",
          "name": "hash",
          "type": "bytes32"
        },
        {
          "internalType": "uint256",
          "name": "timestamp",
          "type": "uint256"
        },
        {
          "internalType": "address",
          "name": "creator",
          "type": "address"
        }
      ],
      "stateMutability": "view",
      "type": "function"
    },
    {
      "inputs": [
        {
          "internalType": "address",
          "name": "user",
          "type": "address"
        },
        {
          "internalType": "enum SupplyChain.Role",
          "name": "role",
          "type": "uint8"
        },
        {
          "internalType": "bytes32",
          "name": "detailsHash",
          "type": "bytes32"
        }
      ],
      "name": "registerUser",
      "outputs": [],
      "stateMutability": "nonpayable",
      "type": "function"
    },
    {
      "inputs": [
        {
          "internalType": "address",
          "name": "user",
          "type": "address"
        }
      ],
      "name": "revokeUser",
      "outputs": [],
      "stateMutability": "nonpayable",
      "type": "function"
    },
    {
      "inputs": [
        {
          "internalType": "uint256",
          "name": "productId",
          "type": "uint256"
        },
        {
          "internalType": "bytes32",
          "name": "batchHash",
          "type": "bytes32"
        }
      ],
      "name": "storeBatch",
      "outputs": [],
      "stateMutability": "nonpayable",
      "type": "function"
    },
    {
      "inputs": [
        {
          "internalType": "uint256",
          "name": "productId",
          "type": "uint256"
        },
        {
          "internalType": "string",
          "name": "name",
          "type": "string"
        },
        {
          "internalType": "string",
          "name": "manufacturer",
          "type": "string"
        },
        {
          "internalType": "string",
          "name": "details",
          "type": "string"
        }
      ],
      "name": "storeProduct",
      "outputs": [],
      "stateMutability": "nonpayable",
      "type": "function"
    },
    {
      "inputs": [
        {
          "internalType": "address",
          "name": "",
          "type": "address"
        }
      ],
      "name": "users",
      "outputs": [
        {
          "internalType": "bytes32",
          "name": "detailsHash",
          "type": "bytes32"
        },
        {
          "internalType": "enum SupplyChain.Role",
          "name": "role",
          "type": "uint8"
        },
        {
          "internalType": "uint256",
          "name": "registeredAt",
          "type": "uint256"
        },
        {
          "internalType": "bool",
          "name": "active",
          "type": "bool"
        }
      ],
      "stateMutability": "view",
      "type": "function"
    }
  ],
  "bytecode": "0x608060405234801561001057600080fd5b50336000806101000a81548173ffffffffffffffffffffffffffffffffffffffff021916908373ffffffffffffffffffffffffffffffffffffffff1602179055506113b9806100606000396000f3fe608060405234801561001057600080fd5b506004361061009e5760003560e01c8063b43fd44511610066578063b43fd4451461018a578063b9db15b4146101a6578063da007edd146101d8578063e2e601bb146101f4578063ef097fc4146102105761009e565b80635ac44282146100a35780637acc0b20146100d55780638da5cb5b14610107578063a87430ba14610125578063b32c4d8d14610158575b600080fd5b6100bd60048036038101906100b89190610c21565b61022c565b6040516100cc93929190610cb7565b60405180910390f35b6100ef60048036038101906100ea9190610c21565b6102d9565b6040516100fe93929190610cb7565b60405180910390f35b61010f610323565b60405161011c9190610cee565b60405180910390f35b61013f600480360381019061013a9190610d35565b610347565b60405161014f9493929190610df4565b60405180910390f35b610172600480360381019061016d9190610c21565b610391565b60405161018193929190610cb7565b60405180910390f35b6101a4600480360381019061019f9190610f7f565b6103db565b005b6101c060048036038101906101bb9190610c21565b610635565b6040516101cf93929190610cb7565b60405180910390f35b6101f260048036038101906101ed919061108b565b6106e2565b005b61020e600480360381019061020991906110de565b61088c565b005b61022a60048036038101906102259190610d35565b610ab4565b005b6000806000806003600086815260200190815260200160002060405180606001604052908160008201548152602001600182015481526020016002820160009054906101000a900473ffffffffffffffffffffffffffffffffffffffff1673ffffffffffffffffffffffffffffffffffffffff1673ffffffffffffffffffffffffffffffffffffffff16815250509050806000015181602001518260400151935093509350509193909250565b60026020528060005260406000206000915090508060000154908060010154908060020160009054906101000a900473ffffffffffffffffffffffffffffffffffffffff16905083565b60008054906101000a900473ffffffffffffffffffffffffffffffffffffffff1681565b60016020528060005260406000206000915090508060000154908060010160009054906101000a900460ff16908060020154908060030160009054906101000a900460ff16905084565b60036020528060005260406000206000915090508060000154908060010154908060020160009054906101000a900473ffffffffffffffffffffffffffffffffffffffff16905083565b60018060003373ffffffffffffffffffffffffffffffffffffffff1673ffffffffffffffffffffffffffffffffffffffff16815260200190815260200160002060030160009054906101000a900460ff1661046b576040517f08c379a00000000000000000000000000000000000000000000000000000000081526004016104629061117b565b60405180910390fd5b80600481111561047e5761047d610d62565b5b600160003373ffffffffffffffffffffffffffffffffffffffff1673ffffffffffffffffffffffffffffffffffffffff16815260200190815260200160002060010160009054906101000a900460ff1660048111156104e0576104df610d62565b5b14610520576040517f08c379a0000000000000000000000000000000000000000000000000000000008152600401610517906111e7565b60405180910390fd5b600084848460405160200161053793929190611278565b60405160208183030381529060405280519060200120905060405180606001604052808281526020014281526020013373ffffffffffffffffffffffffffffffffffffffff1681525060026000888152602001908152602001600020600082015181600001556020820151816001015560408201518160020160006101000a81548173ffffffffffffffffffffffffffffffffffffffff021916908373ffffffffffffffffffffffffffffffffffffffff160217905550905050857fdcc7bc3c427662274b04863b9d1b233b501a520c31e5b82425086af8cec74c4b823342604051610625939291906112a9565b60405180910390a2505050505050565b6000806000806002600086815260200190815260200160002060405180606001604052908160008201548152602001600182015481526020016002820160009054906101000a900473ffffffffffffffffffffffffffffffffffffffff1673ffffffffffffffffffffffffffffffffffffffff1673ffffffffffffffffffffffffffffffffffffffff16815250509050806000015181602001518260400151935093509350509193909250565b60008054906101000a900473ffffffffffffffffffffffffffffffffffffffff1673ffffffffffffffffffffffffffffffffffffffff163373ffffffffffffffffffffffffffffffffffffffff1614610770576040517f08c379a00000000000000000000000000000000000000000000000000000000081526004016107679061132c565b60405180910390fd5b604051806080016040528082815260200183600481111561079457610793610d62565b5b815260200142815260200160011515815250600160008573ffffffffffffffffffffffffffffffffffffffff1673ffffffffffffffffffffffffffffffffffffffff1681526020019081526020016000206000820151816000015560208201518160010160006101000a81548160ff0219169083600481111561081a57610819610d62565b5b02179055506040820151816002015560608201518160030160006101000a81548160ff0219169083151502179055509050507fdb6cf03dc9a043a4bf1fb0ec12e290ee46b057228d72fb9b43c387f4dc1b37a083838360405161087f9392919061134c565b60405180910390a1505050565b60018060003373ffffffffffffffffffffffffffffffffffffffff1673ffffffffffffffffffffffffffffffffffffffff16815260200190815260200160002060030160009054906101000a900460ff1661091c576040517f08c379a00000000000000000000000000000000000000000000000000000000081526004016109139061117b565b60405180910390fd5b80600481111561092f5761092e610d62565b5b600160003373ffffffffffffffffffffffffffffffffffffffff1673ffffffffffffffffffffffffffffffffffffffff16815260200190815260200160002060010160009054906101000a900460ff16600481111561099157610990610d62565b5b146109d1576040517f08c379a00000000000000000000000000000000000000000000000000000000081526004016109c8906111e7565b60405180910390fd5b60405180606001604052808381526020014281526020013373ffffffffffffffffffffffffffffffffffffffff1681525060036000858152602001908152602001600020600082015181600001556020820151816001015560408201518160020160006101000a81548173ffffffffffffffffffffffffffffffffffffffff021916908373ffffffffffffffffffffffffffffffffffffffff160217905550905050827f25152eb0117d22c2fb3bd981694d877ac38cb53789f14db0e618bf4752bd0d38833342604051610aa7939291906112a9565b60405180910390a2505050565b60008054906101000a900473ffffffffffffffffffffffffffffffffffffffff1673ffffffffffffffffffffffffffffffffffffffff163373ffffffffffffffffffffffffffffffffffffffff1614610b42576040517f08c379a0000000000000000000000000000000000000000000000000000000008152600401610b399061132c565b60405180910390fd5b6000600160008373ffffffffffffffffffffffffffffffffffffffff1673ffffffffffffffffffffffffffffffffffffffff16815260200190815260200160002060030160006101000a81548160ff0219169083151502179055507fb43ac7bf01d16ebcb8c868a4c03fecb1f6984ea4fa1a52c116ef282b8dbb17c581604051610bcc9190610cee565b60405180910390a150565b6000604051905090565b600080fd5b600080fd5b6000819050919050565b610bfe81610beb565b8114610c0957600080fd5b50565b600081359050610c1b81610bf5565b92915050565b600060208284031215610c3757610c36610be1565b5b6000610c4584828501610c0c565b91505092915050565b6000819050919050565b610c6181610c4e565b82525050565b610c7081610beb565b82525050565b600073ffffffffffffffffffffffffffffffffffffffff82169050919050565b6000610ca182610c76565b9050919050565b610cb181610c96565b82525050565b6000606082019050610ccc6000830186610c58565b610cd96020830185610c67565b610ce66040830184610ca8565b949350505050565b6000602082019050610d036000830184610ca8565b92915050565b610d1281610c96565b8114610d1d57600080fd5b50565b600081359050610d2f81610d09565b92915050565b600060208284031215610d4b57610d4a610be1565b5b6000610d5984828501610d20565b91505092915050565b7f4e487b7100000000000000000000000000000000000000000000000000000000600052602160045260246000fd5b60058110610da257610da1610d62565b5b50565b6000819050610db382610d91565b919050565b6000610dc382610da5565b9050919050565b610dd381610db8565b82525050565b60008115159050919050565b610dee81610dd9565b82525050565b6000608082019050610e096000830187610c58565b610e166020830186610dca565b610e236040830185610c67565b610e306060830184610de5565b95945050505050565b600080fd5b600080fd5b6000601f19601f8301169050919050565b7f4e487b7100000000000000000000000000000000000000000000000000000000600052604160045260246000fd5b610e8c82610e43565b810181811067ffffffffffffffff82111715610eab57610eaa610e54565b5b80604052505050565b6000610ebe610bd7565b9050610eca8282610e83565b919050565b600067ffffffffffffffff821115610eea57610ee9610e54565b5b610ef382610e43565b9050602081019050919050565b82818337600083830152505050565b6000610f22610f1d84610ecf565b610eb4565b905082815260208101848484011115610f3e57610f3d610e3e565b5b610f49848285610f00565b509392505050565b600082601f830112610f6657610f65610e39565b5b8135610f76848260208601610f0f565b91505092915050565b60008060008060808587031215610f9957610f98610be1565b5b6000610fa787828801610c0c565b945050602085013567ffffffffffffffff811115610fc857610fc7610be6565b5b610fd487828801610f51565b935050604085013567ffffffffffffffff811115610ff557610ff4610be6565b5b61100187828801610f51565b925050606085013567ffffffffffffffff81111561102257611021610be6565b5b61102e87828801610f51565b91505092959194509250565b6005811061104757600080fd5b50565b6000813590506110598161103a565b92915050565b61106881610c4e565b811461107357600080fd5b50565b6000813590506110858161105f565b92915050565b6000806000606084860312156110a4576110a3610be1565b5b60006110b286828701610d20565b93505060206110c38682870161104a565b92505060406110d486828701611076565b9150509250925092565b600080604083850312156110f5576110f4610be1565b5b600061110385828601610c0c565b925050602061111485828601611076565b9150509250929050565b600082825260208201905092915050565b7f4e6f742072656769737465726564000000000000000000000000000000000000600082015250565b6000611165600e8361111e565b91506111708261112f565b602082019050919050565b6000602082019050818103600083015261119481611158565b9050919050565b7f57726f6e6720726f6c6500000000000000000000000000000000000000000000600082015250565b60006111d1600a8361111e565b91506111dc8261119b565b602082019050919050565b60006020820190508181036000830152611200816111c4565b9050919050565b600081519050919050565b600081905092915050565b60005b8381101561123b578082015181840152602081019050611220565b60008484015250505050565b600061125282611207565b61125c8185611212565b935061126c81856020860161121d565b80840191505092915050565b60006112848286611247565b91506112908285611247565b915061129c8284611247565b9150819050949350505050565b60006060820190506112be6000830186610c58565b6112cb6020830185610ca8565b6112d86040830184610c67565b949350505050565b7f4e6f7420636f6e7472616374206f776e65720000000000000000000000000000600082015250565b600061131660128361111e565b9150611321826112e0565b602082019050919050565b6000602082019050818103600083015261134581611309565b9050919050565b60006060820190506113616000830186610ca8565b61136e6020830185610dca565b61137b6040830184610c58565b94935050505056fea2646970667358221220da89f63f185292a1a03395e14fbd089739ab4b8e152de9e933ae47c6316cf12164736f6c63430008140033",
  "linkReferences": {},
  "deployedLinkReferences": {}
}