{
  "_format": "hh-sol-artifact-1",
  "contractName": "ShipmentRegistry",
  "sourceName": "contracts/ShipmentRegistry.sol",
  "abi": [
    {
      "inputs": [],
      "stateMutability": "nonpayable",
      "type": "constructor"
    },
    {
      "anonymous": false,
      "inputs": [
        {
          "indexed": true,
          "internalType": "bytes16",
          "name": "shipmentId",
          "type": "bytes16"
        },
        {
          "indexed": false,
          "internalType": "bytes32",
          "name": "hash",
          "type": "bytes32"
        },
        {
          "indexed": false,
          "internalType": "address",
          "name": "createdBy",
          "type": "address"
        },
        {
          "indexed": false,
          "internalType": "uint256",
          "name": "createdAt",
          "type": "uint256"
        }
      ],
      "name": "ShipmentRegistered",
      "type": "event"
    },
    {
      "anonymous": false,
      "inputs": [
        {
          "indexed": true,
          "internalType": "bytes16",
          "name": "shipmentId",
          "type": "bytes16"
        },
        {
          "indexed": false,
          "internalType": "bytes32",
          "name": "newHash",
          "type": "bytes32"
        },
        {
          "indexed": false,
          "internalType": "address",
          "name": "updatedBy",
          "type": "address"
        },
        {
          "indexed": false,
          "internalType": "uint256",
          "name": "updatedAt",
          "type": "uint256"
        }
      ],
      "name": "ShipmentUpdated",
      "type": "event"
    },
    {
      "inputs": [
        {
          "internalType": "bytes16",
          "name": "shipmentId",
          "type": "bytes16"
        }
      ],
      "name": "getShipment",
      "outputs": [
        {
          "components": [
            {
              "internalType": "bytes32",
              "name": "hash",
              "type": "bytes32"
            },
            {
              "internalType": "uint256",
              "name": "createdAt",
              "type": "uint256"
            },
            {
              "internalType": "uint256",
              "name": "updatedAt",
              "type": "uint256"
            },
            {
              "internalType": "address",
              "name": "createdBy",
              "type": "address"
            },
            {
              "internalType": "address",
              "name": "updatedBy",
              "type": "address"
            }
          ],
          "internalType": "struct ShipmentRegistry.ShipmentMeta",
          "name": "",
          "type": "tuple"
        }
      ],
      "stateMutability": "view",
      "type": "function"
    },
    {
      "inputs": [],
      "name": "owner",
      "outputs": [
        {
          "internalType": "address",
          "name": "",
          "type": "address"
        }
      ],
      "stateMutability": "view",
      "type": "function"
    },
    {
      "inputs": [
        {
          "internalType": "bytes16",
          "name": "shipmentId",
          "type": "bytes16"
        },
        {
          "internalType": "bytes32",
          "name": "dbHash",
          "type": "bytes32"
        }
      ],
      "name": "registerShipment",
      "outputs": [],
      "stateMutability": "nonpayable",
      "type": "function"
    },
    {
      "inputs": [
        {
          "internalType": "bytes16",
          "name": "",
          "type": "bytes16"
        }
      ],
      "name": "shipments",
      "outputs": [
        {
          "internalType": "bytes32",
          "name": "hash",
          "type": "bytes32"
        },
        {
          "internalType": "uint256",
          "name": "createdAt",
          "type": "uint256"
        },
        {
          "internalType": "uint256",
          "name": "updatedAt",
          "type": "uint256"
        },
        {
          "internalType": "address",
          "name": "createdBy",
          "type": "address"
        },
        {
          "internalType": "address",
          "name": "updatedBy",
          "type": "address"
        }
      ],
      "stateMutability": "view",
      "type": "function"
    },
    {
      "inputs": [
        {
          "internalType": "bytes16",
          "name": "shipmentId",
          "type": "bytes16"
        },
        {
          "internalType": "bytes32",
          "name": "newHash",
          "type": "bytes32"
        }
      ],
      "name": "updateShipment",
      "outputs": [],
      "stateMutability": "nonpayable",
      "type": "function"
    }
  ],
  "bytecode": "0x608060405234801561001057600080fd5b50336000806101000a81548173ffffffffffffffffffffffffffffffffffffffff021916908373ffffffffffffffffffffffffffffffffffffffff160217905550610a7c806100606000396000f3fe608060405234801561001057600080fd5b50600436106100575760003560e01c806358d01ac41461005c578063612027e8146100785780638da5cb5b14610094578063e13cb240146100b2578063ef03ed85146100e2575b600080fd5b61007660048036038101906100719190610732565b610116565b005b610092600480360381019061008d9190610732565b610325565b005b61009c61048a565b6040516100a991906107b3565b60405180910390f35b6100cc60048036038101906100c791906107ce565b6104ae565b6040516100d9919061089a565b60405180910390f35b6100fc60048036038101906100f791906107ce565b6105cb565b60405161010d9594939291906108d3565b60405180910390f35b600060016000846fffffffffffffffffffffffffffffffff19166fffffffffffffffffffffffffffffffff191681526020019081526020016000206001015414610195576040517f08c379a000000000000000000000000000000000000000000000000000000000815260040161018c90610983565b60405180910390fd5b6040518060a00160405280828152602001428152602001600081526020013373ffffffffffffffffffffffffffffffffffffffff168152602001600073ffffffffffffffffffffffffffffffffffffffff1681525060016000846fffffffffffffffffffffffffffffffff19166fffffffffffffffffffffffffffffffff1916815260200190815260200160002060008201518160000155602082015181600101556040820151816002015560608201518160030160006101000a81548173ffffffffffffffffffffffffffffffffffffffff021916908373ffffffffffffffffffffffffffffffffffffffff16021790555060808201518160040160006101000a81548173ffffffffffffffffffffffffffffffffffffffff021916908373ffffffffffffffffffffffffffffffffffffffff160217905550905050816fffffffffffffffffffffffffffffffff19167f3ab7323525c01141d3bdda569803214a4fddfd454582f5c7798af7130239a31a823342604051610319939291906109a3565b60405180910390a25050565b600060016000846fffffffffffffffffffffffffffffffff19166fffffffffffffffffffffffffffffffff1916815260200190815260200160002060010154036103a4576040517f08c379a000000000000000000000000000000000000000000000000000000000815260040161039b90610a26565b60405180910390fd5b600060016000846fffffffffffffffffffffffffffffffff19166fffffffffffffffffffffffffffffffff191681526020019081526020016000209050818160000181905550428160020181905550338160040160006101000a81548173ffffffffffffffffffffffffffffffffffffffff021916908373ffffffffffffffffffffffffffffffffffffffff160217905550826fffffffffffffffffffffffffffffffff19167f33d8dd1fe2297431fa36042f827324bf3dc9ae98e2dd95df3f60298c68ee6ea283334260405161047d939291906109a3565b60405180910390a2505050565b60008054906101000a900473ffffffffffffffffffffffffffffffffffffffff1681565b6104b6610641565b60016000836fffffffffffffffffffffffffffffffff19166fffffffffffffffffffffffffffffffff191681526020019081526020016000206040518060a00160405290816000820154815260200160018201548152602001600282015481526020016003820160009054906101000a900473ffffffffffffffffffffffffffffffffffffffff1673ffffffffffffffffffffffffffffffffffffffff1673ffffffffffffffffffffffffffffffffffffffff1681526020016004820160009054906101000a900473ffffffffffffffffffffffffffffffffffffffff1673ffffffffffffffffffffffffffffffffffffffff1673ffffffffffffffffffffffffffffffffffffffff16815250509050919050565b60016020528060005260406000206000915090508060000154908060010154908060020154908060030160009054906101000a900473ffffffffffffffffffffffffffffffffffffffff16908060040160009054906101000a900473ffffffffffffffffffffffffffffffffffffffff16905085565b6040518060a00160405280600080191681526020016000815260200160008152602001600073ffffffffffffffffffffffffffffffffffffffff168152602001600073ffffffffffffffffffffffffffffffffffffffff1681525090565b600080fd5b60007fffffffffffffffffffffffffffffffff0000000000000000000000000000000082169050919050565b6106d9816106a4565b81146106e457600080fd5b50565b6000813590506106f6816106d0565b92915050565b6000819050919050565b61070f816106fc565b811461071a57600080fd5b50565b60008135905061072c81610706565b92915050565b600080604083850312156107495761074861069f565b5b6000610757858286016106e7565b92505060206107688582860161071d565b9150509250929050565b600073ffffffffffffffffffffffffffffffffffffffff82169050919050565b600061079d82610772565b9050919050565b6107ad81610792565b82525050565b60006020820190506107c860008301846107a4565b92915050565b6000602082840312156107e4576107e361069f565b5b60006107f2848285016106e7565b91505092915050565b610804816106fc565b82525050565b6000819050919050565b61081d8161080a565b82525050565b61082c81610792565b82525050565b60a08201600082015161084860008501826107fb565b50602082015161085b6020850182610814565b50604082015161086e6040850182610814565b5060608201516108816060850182610823565b5060808201516108946080850182610823565b50505050565b600060a0820190506108af6000830184610832565b92915050565b6108be816106fc565b82525050565b6108cd8161080a565b82525050565b600060a0820190506108e860008301886108b5565b6108f560208301876108c4565b61090260408301866108c4565b61090f60608301856107a4565b61091c60808301846107a4565b9695505050505050565b600082825260208201905092915050565b7f536869706d656e7420616c726561647920657869737473000000000000000000600082015250565b600061096d601783610926565b915061097882610937565b602082019050919050565b6000602082019050818103600083015261099c81610960565b9050919050565b60006060820190506109b860008301866108b5565b6109c560208301856107a4565b6109d260408301846108c4565b949350505050565b7f536869706d656e7420646f6573206e6f74206578697374000000000000000000600082015250565b6000610a10601783610926565b9150610a1b826109da565b602082019050919050565b60006020820190508181036000830152610a3f81610a03565b905091905056fea264697066735822122065dcbfa914a28dd2dc067031f6341d99d91cb2e63e2d4da555d65f45381417b364736f6c63430008180033",
  "linkReferences": {},
  "deployedLinkReferences": {}
}