{
  "_format": "hh-sol-artifact-1",
  "contractName": "CheckpointRegistry",
  "sourceName": "contracts/CheckpointRegistry.sol",
  "abi": [
    {
      "inputs": [],
      "stateMutability": "nonpayable",
      "type": "constructor"
    },
    {
      "anonymous": false,
      "inputs": [
        {
          "indexed": true,
          "internalType": "bytes16",
          "name": "checkpointId",
          "type": "bytes16"
        },
        {
          "indexed": false,
          "internalType": "bytes32",
          "name": "hash",
          "type": "bytes32"
        },
        {
          "indexed": false,
          "internalType": "address",
          "name": "createdBy",
          "type": "address"
        },
        {
          "indexed": false,
          "internalType": "uint256",
          "name": "createdAt",
          "type": "uint256"
        }
      ],
      "name": "CheckpointRegistered",
      "type": "event"
    },
    {
      "anonymous": false,
      "inputs": [
        {
          "indexed": true,
          "internalType": "bytes16",
          "name": "checkpointId",
          "type": "bytes16"
        },
        {
          "indexed": false,
          "internalType": "bytes32",
          "name": "newHash",
          "type": "bytes32"
        },
        {
          "indexed": false,
          "internalType": "address",
          "name": "updatedBy",
          "type": "address"
        },
        {
          "indexed": false,
          "internalType": "uint256",
          "name": "updatedAt",
          "type": "uint256"
        }
      ],
      "name": "CheckpointUpdated",
      "type": "event"
    },
    {
      "inputs": [
        {
          "internalType": "bytes16",
          "name": "",
          "type": "bytes16"
        }
      ],
      "name": "checkpoints",
      "outputs": [
        {
          "internalType": "bytes32",
          "name": "hash",
          "type": "bytes32"
        },
        {
          "internalType": "uint256",
          "name": "createdAt",
          "type": "uint256"
        },
        {
          "internalType": "uint256",
          "name": "updatedAt",
          "type": "uint256"
        },
        {
          "internalType": "address",
          "name": "createdBy",
          "type": "address"
        },
        {
          "internalType": "address",
          "name": "updatedBy",
          "type": "address"
        }
      ],
      "stateMutability": "view",
      "type": "function"
    },
    {
      "inputs": [
        {
          "internalType": "bytes16",
          "name": "checkpointId",
          "type": "bytes16"
        }
      ],
      "name": "getCheckpoint",
      "outputs": [
        {
          "components": [
            {
              "internalType": "bytes32",
              "name": "hash",
              "type": "bytes32"
            },
            {
              "internalType": "uint256",
              "name": "createdAt",
              "type": "uint256"
            },
            {
              "internalType": "uint256",
              "name": "updatedAt",
              "type": "uint256"
            },
            {
              "internalType": "address",
              "name": "createdBy",
              "type": "address"
            },
            {
              "internalType": "address",
              "name": "updatedBy",
              "type": "address"
            }
          ],
          "internalType": "struct CheckpointRegistry.CheckpointMeta",
          "name": "",
          "type": "tuple"
        }
      ],
      "stateMutability": "view",
      "type": "function"
    },
    {
      "inputs": [],
      "name": "owner",
      "outputs": [
        {
          "internalType": "address",
          "name": "",
          "type": "address"
        }
      ],
      "stateMutability": "view",
      "type": "function"
    },
    {
      "inputs": [
        {
          "internalType": "bytes16",
          "name": "checkpointId",
          "type": "bytes16"
        },
        {
          "internalType": "bytes",
          "name": "canonicalPayload",
          "type": "bytes"
        }
      ],
      "name": "registerCheckpoint",
      "outputs": [
        {
          "internalType": "bytes16",
          "name": "",
          "type": "bytes16"
        }
      ],
      "stateMutability": "nonpayable",
      "type": "function"
    },
    {
      "inputs": [
        {
          "internalType": "bytes16",
          "name": "checkpointId",
          "type": "bytes16"
        },
        {
          "internalType": "bytes",
          "name": "canonicalPayload",
          "type": "bytes"
        }
      ],
      "name": "updateCheckpoint",
      "outputs": [],
      "stateMutability": "nonpayable",
      "type": "function"
    }
  ],
  "bytecode": "0x608060405234801561001057600080fd5b50336000806101000a81548173ffffffffffffffffffffffffffffffffffffffff021916908373ffffffffffffffffffffffffffffffffffffffff160217905550610c31806100606000396000f3fe608060405234801561001057600080fd5b50600436106100575760003560e01c80636f4e7aa31461005c578063787658dd1461008c5780638da5cb5b146100bc5780638eeb1739146100da578063cb9c3e5b146100f6575b600080fd5b6100766004803603810190610071919061083b565b61012a565b60405161008391906108aa565b60405180910390f35b6100a660048036038101906100a191906108c5565b61035d565b6040516100b391906109cd565b60405180910390f35b6100c46104f9565b6040516100d191906109f7565b60405180910390f35b6100f460048036038101906100ef919061083b565b61051d565b005b610110600480360381019061010b91906108c5565b6106a0565b604051610121959493929190610a30565b60405180910390f35b60008060016000866fffffffffffffffffffffffffffffffff19166fffffffffffffffffffffffffffffffff1916815260200190815260200160002060010154146101aa576040517f08c379a00000000000000000000000000000000000000000000000000000000081526004016101a190610ae0565b60405180910390fd5b600083836040516101bc929190610b3f565b604051809103902090506040518060a00160405280828152602001428152602001600081526020013373ffffffffffffffffffffffffffffffffffffffff168152602001600073ffffffffffffffffffffffffffffffffffffffff1681525060016000876fffffffffffffffffffffffffffffffff19166fffffffffffffffffffffffffffffffff1916815260200190815260200160002060008201518160000155602082015181600101556040820151816002015560608201518160030160006101000a81548173ffffffffffffffffffffffffffffffffffffffff021916908373ffffffffffffffffffffffffffffffffffffffff16021790555060808201518160040160006101000a81548173ffffffffffffffffffffffffffffffffffffffff021916908373ffffffffffffffffffffffffffffffffffffffff160217905550905050846fffffffffffffffffffffffffffffffff19167fa89bac75979deb70bf3019a1da8641f3347815c970163a1b7cfd8a28088030e682334260405161034a93929190610b58565b60405180910390a2849150509392505050565b610365610716565b600060016000846fffffffffffffffffffffffffffffffff19166fffffffffffffffffffffffffffffffff1916815260200190815260200160002060010154036103e4576040517f08c379a00000000000000000000000000000000000000000000000000000000081526004016103db90610bdb565b60405180910390fd5b60016000836fffffffffffffffffffffffffffffffff19166fffffffffffffffffffffffffffffffff191681526020019081526020016000206040518060a00160405290816000820154815260200160018201548152602001600282015481526020016003820160009054906101000a900473ffffffffffffffffffffffffffffffffffffffff1673ffffffffffffffffffffffffffffffffffffffff1673ffffffffffffffffffffffffffffffffffffffff1681526020016004820160009054906101000a900473ffffffffffffffffffffffffffffffffffffffff1673ffffffffffffffffffffffffffffffffffffffff1673ffffffffffffffffffffffffffffffffffffffff16815250509050919050565b60008054906101000a900473ffffffffffffffffffffffffffffffffffffffff1681565b600060016000856fffffffffffffffffffffffffffffffff19166fffffffffffffffffffffffffffffffff19168152602001908152602001600020600101540361059c576040517f08c379a000000000000000000000000000000000000000000000000000000000815260040161059390610bdb565b60405180910390fd5b600082826040516105ae929190610b3f565b60405180910390209050600060016000866fffffffffffffffffffffffffffffffff19166fffffffffffffffffffffffffffffffff191681526020019081526020016000209050818160000181905550428160020181905550338160040160006101000a81548173ffffffffffffffffffffffffffffffffffffffff021916908373ffffffffffffffffffffffffffffffffffffffff160217905550846fffffffffffffffffffffffffffffffff19167f603e86d12f9b01b3735da07c6eb1ea067d652126a09f0753059a185b3cd819fe83334260405161069193929190610b58565b60405180910390a25050505050565b60016020528060005260406000206000915090508060000154908060010154908060020154908060030160009054906101000a900473ffffffffffffffffffffffffffffffffffffffff16908060040160009054906101000a900473ffffffffffffffffffffffffffffffffffffffff16905085565b6040518060a00160405280600080191681526020016000815260200160008152602001600073ffffffffffffffffffffffffffffffffffffffff168152602001600073ffffffffffffffffffffffffffffffffffffffff1681525090565b600080fd5b600080fd5b60007fffffffffffffffffffffffffffffffff0000000000000000000000000000000082169050919050565b6107b38161077e565b81146107be57600080fd5b50565b6000813590506107d0816107aa565b92915050565b600080fd5b600080fd5b600080fd5b60008083601f8401126107fb576107fa6107d6565b5b8235905067ffffffffffffffff811115610818576108176107db565b5b602083019150836001820283011115610834576108336107e0565b5b9250929050565b60008060006040848603121561085457610853610774565b5b6000610862868287016107c1565b935050602084013567ffffffffffffffff81111561088357610882610779565b5b61088f868287016107e5565b92509250509250925092565b6108a48161077e565b82525050565b60006020820190506108bf600083018461089b565b92915050565b6000602082840312156108db576108da610774565b5b60006108e9848285016107c1565b91505092915050565b6000819050919050565b610905816108f2565b82525050565b6000819050919050565b61091e8161090b565b82525050565b600073ffffffffffffffffffffffffffffffffffffffff82169050919050565b600061094f82610924565b9050919050565b61095f81610944565b82525050565b60a08201600082015161097b60008501826108fc565b50602082015161098e6020850182610915565b5060408201516109a16040850182610915565b5060608201516109b46060850182610956565b5060808201516109c76080850182610956565b50505050565b600060a0820190506109e26000830184610965565b92915050565b6109f181610944565b82525050565b6000602082019050610a0c60008301846109e8565b92915050565b610a1b816108f2565b82525050565b610a2a8161090b565b82525050565b600060a082019050610a456000830188610a12565b610a526020830187610a21565b610a5f6040830186610a21565b610a6c60608301856109e8565b610a7960808301846109e8565b9695505050505050565b600082825260208201905092915050565b7f436865636b706f696e7420616c72656164792065786973747300000000000000600082015250565b6000610aca601983610a83565b9150610ad582610a94565b602082019050919050565b60006020820190508181036000830152610af981610abd565b9050919050565b600081905092915050565b82818337600083830152505050565b6000610b268385610b00565b9350610b33838584610b0b565b82840190509392505050565b6000610b4c828486610b1a565b91508190509392505050565b6000606082019050610b6d6000830186610a12565b610b7a60208301856109e8565b610b876040830184610a21565b949350505050565b7f436865636b706f696e7420646f6573206e6f7420657869737400000000000000600082015250565b6000610bc5601983610a83565b9150610bd082610b8f565b602082019050919050565b60006020820190508181036000830152610bf481610bb8565b905091905056fea26469706673582212202233e23affe42c083b4cd67a541e06ac684559869136c139872bc490b51ef7fb64736f6c63430008180033",
  "linkReferences": {},
  "deployedLinkReferences": {}
}