{
  "_format": "hh-sol-artifact-1",
  "contractName": "TelemetryMessageRegistry",
  "sourceName": "contracts/TelemetryMessageRegistry.sol",
  "abi": [
    {
      "anonymous": false,
      "inputs": [
        {
          "indexed": true,
          "internalType": "bytes16",
          "name": "messageId",
          "type": "bytes16"
        },
        {
          "indexed": true,
          "internalType": "bytes16",
          "name": "packageId",
          "type": "bytes16"
        },
        {
          "indexed": true,
          "internalType": "bytes16",
          "name": "manufacturerId",
          "type": "bytes16"
        },
        {
          "indexed": false,
          "internalType": "bytes32",
          "name": "payloadHash",
          "type": "bytes32"
        },
        {
          "indexed": false,
          "internalType": "uint256",
          "name": "timestamp",
          "type": "uint256"
        },
        {
          "indexed": false,
          "internalType": "address",
          "name": "registeredBy",
          "type": "address"
        }
      ],
      "name": "TelemetryMessageRegistered",
      "type": "event"
    },
    {
      "inputs": [
        {
          "internalType": "bytes16",
          "name": "_packageId",
          "type": "bytes16"
        }
      ],
      "name": "getMessagesByPackage",
      "outputs": [
        {
          "internalType": "bytes16[]",
          "name": "",
          "type": "bytes16[]"
        }
      ],
      "stateMutability": "view",
      "type": "function"
    },
    {
      "inputs": [
        {
          "internalType": "bytes16",
          "name": "_messageId",
          "type": "bytes16"
        }
      ],
      "name": "getTelemetryMessage",
      "outputs": [
        {
          "internalType": "bytes16",
          "name": "messageId",
          "type": "bytes16"
        },
        {
          "internalType": "bytes16",
          "name": "packageId",
          "type": "bytes16"
        },
        {
          "internalType": "bytes16",
          "name": "manufacturerId",
          "type": "bytes16"
        },
        {
          "internalType": "bytes32",
          "name": "payloadHash",
          "type": "bytes32"
        },
        {
          "internalType": "uint256",
          "name": "timestamp",
          "type": "uint256"
        },
        {
          "internalType": "address",
          "name": "registeredBy",
          "type": "address"
        }
      ],
      "stateMutability": "view",
      "type": "function"
    },
    {
      "inputs": [],
      "name": "getTotalMessages",
      "outputs": [
        {
          "internalType": "uint256",
          "name": "",
          "type": "uint256"
        }
      ],
      "stateMutability": "view",
      "type": "function"
    },
    {
      "inputs": [
        {
          "internalType": "uint256",
          "name": "",
          "type": "uint256"
        }
      ],
      "name": "messageIds",
      "outputs": [
        {
          "internalType": "bytes16",
          "name": "",
          "type": "bytes16"
        }
      ],
      "stateMutability": "view",
      "type": "function"
    },
    {
      "inputs": [
        {
          "internalType": "bytes16",
          "name": "_messageId",
          "type": "bytes16"
        },
        {
          "internalType": "bytes16",
          "name": "_packageId",
          "type": "bytes16"
        },
        {
          "internalType": "bytes16",
          "name": "_manufacturerId",
          "type": "bytes16"
        },
        {
          "internalType": "bytes32",
          "name": "_payloadHash",
          "type": "bytes32"
        }
      ],
      "name": "registerTelemetryMessage",
      "outputs": [
        {
          "internalType": "bool",
          "name": "success",
          "type": "bool"
        },
        {
          "internalType": "bytes32",
          "name": "storedHash",
          "type": "bytes32"
        }
      ],
      "stateMutability": "nonpayable",
      "type": "function"
    },
    {
      "inputs": [
        {
          "internalType": "bytes16",
          "name": "",
          "type": "bytes16"
        }
      ],
      "name": "telemetryMessages",
      "outputs": [
        {
          "internalType": "bytes16",
          "name": "messageId",
          "type": "bytes16"
        },
        {
          "internalType": "bytes16",
          "name": "packageId",
          "type": "bytes16"
        },
        {
          "internalType": "bytes16",
          "name": "manufacturerId",
          "type": "bytes16"
        },
        {
          "internalType": "bytes32",
          "name": "payloadHash",
          "type": "bytes32"
        },
        {
          "internalType": "uint256",
          "name": "timestamp",
          "type": "uint256"
        },
        {
          "internalType": "address",
          "name": "registeredBy",
          "type": "address"
        }
      ],
      "stateMutability": "view",
      "type": "function"
    },
    {
      "inputs": [
        {
          "internalType": "bytes16",
          "name": "_messageId",
          "type": "bytes16"
        },
        {
          "internalType": "bytes32",
          "name": "_payloadHash",
          "type": "bytes32"
        }
      ],
      "name": "verifyTelemetryMessage",
      "outputs": [
        {
          "internalType": "bool",
          "name": "",
          "type": "bool"
        }
      ],
      "stateMutability": "view",
      "type": "function"
    }
  ],
  "bytecode": "0x608060405234801561001057600080fd5b50611551806100206000396000f3fe608060405234801561001057600080fd5b506004361061007d5760003560e01c80638d34d03f1161005b5780638d34d03f146101055780639d17b9c514610135578063b3ed12f914610165578063dface6f4146101965761007d565b8063147e9108146100825780634039c37c146100a05780637ec588a8146100d5575b600080fd5b61008a6101cb565b6040516100979190610d81565b60405180910390f35b6100ba60048036038101906100b59190610df9565b6101d8565b6040516100cc96959493929190610e8f565b60405180910390f35b6100ef60048036038101906100ea9190610f1c565b61025b565b6040516100fc9190610f77565b60405180910390f35b61011f600480360381019061011a9190610df9565b610431565b60405161012c9190611050565b60405180910390f35b61014f600480360381019061014a919061109e565b6106bb565b60405161015c91906110cb565b60405180910390f35b61017f600480360381019061017a91906110e6565b6106f2565b60405161018d92919061114d565b60405180910390f35b6101b060048036038101906101ab9190610df9565b610b66565b6040516101c296959493929190610e8f565b60405180910390f35b6000600180549050905090565b60006020528060005260406000206000915090508060000160009054906101000a900460801b908060000160109054906101000a900460801b908060010160009054906101000a900460801b908060020154908060030154908060040160009054906101000a900473ffffffffffffffffffffffffffffffffffffffff16905086565b600080600080856fffffffffffffffffffffffffffffffff19166fffffffffffffffffffffffffffffffff191681526020019081526020016000206040518060c00160405290816000820160009054906101000a900460801b6fffffffffffffffffffffffffffffffff19166fffffffffffffffffffffffffffffffff191681526020016000820160109054906101000a900460801b6fffffffffffffffffffffffffffffffff19166fffffffffffffffffffffffffffffffff191681526020016001820160009054906101000a900460801b6fffffffffffffffffffffffffffffffff19166fffffffffffffffffffffffffffffffff1916815260200160028201548152602001600382015481526020016004820160009054906101000a900473ffffffffffffffffffffffffffffffffffffffff1673ffffffffffffffffffffffffffffffffffffffff1673ffffffffffffffffffffffffffffffffffffffff16815250509050600060801b81600001516fffffffffffffffffffffffffffffffff191603610421576040517f08c379a0000000000000000000000000000000000000000000000000000000008152600401610418906111d3565b60405180910390fd5b8281606001511491505092915050565b60606000805b60018054905081101561050b57836fffffffffffffffffffffffffffffffff19166000806001848154811061046f5761046e6111f3565b5b90600052602060002090600291828204019190066010029054906101000a900460801b6fffffffffffffffffffffffffffffffff19166fffffffffffffffffffffffffffffffff1916815260200190815260200160002060000160109054906101000a900460801b6fffffffffffffffffffffffffffffffff1916036104fe5781806104fa90611251565b9250505b8080600101915050610437565b5060008167ffffffffffffffff81111561052857610527611299565b5b6040519080825280602002602001820160405280156105565781602001602082028036833780820191505090505b5090506000805b6001805490508110156106af57856fffffffffffffffffffffffffffffffff191660008060018481548110610595576105946111f3565b5b90600052602060002090600291828204019190066010029054906101000a900460801b6fffffffffffffffffffffffffffffffff19166fffffffffffffffffffffffffffffffff1916815260200190815260200160002060000160109054906101000a900460801b6fffffffffffffffffffffffffffffffff1916036106a25760018181548110610629576106286111f3565b5b90600052602060002090600291828204019190066010029054906101000a900460801b83838151811061065f5761065e6111f3565b5b60200260200101906fffffffffffffffffffffffffffffffff191690816fffffffffffffffffffffffffffffffff191681525050818061069e90611251565b9250505b808060010191505061055d565b50819350505050919050565b600181815481106106cb57600080fd5b9060005260206000209060029182820401919006601002915054906101000a900460801b81565b600080600060801b866fffffffffffffffffffffffffffffffff19160361074e576040517f08c379a000000000000000000000000000000000000000000000000000000000815260040161074590611314565b60405180910390fd5b600060801b856fffffffffffffffffffffffffffffffff1916036107a7576040517f08c379a000000000000000000000000000000000000000000000000000000000815260040161079e90611380565b60405180910390fd5b600060801b846fffffffffffffffffffffffffffffffff191603610800576040517f08c379a00000000000000000000000000000000000000000000000000000000081526004016107f7906113ec565b60405180910390fd5b6000801b8303610845576040517f08c379a000000000000000000000000000000000000000000000000000000000815260040161083c90611458565b60405180910390fd5b600060801b600080886fffffffffffffffffffffffffffffffff19166fffffffffffffffffffffffffffffffff1916815260200190815260200160002060000160009054906101000a900460801b6fffffffffffffffffffffffffffffffff1916146108e6576040517f08c379a00000000000000000000000000000000000000000000000000000000081526004016108dd906114c4565b60405180910390fd5b6040518060c00160405280876fffffffffffffffffffffffffffffffff19168152602001866fffffffffffffffffffffffffffffffff19168152602001856fffffffffffffffffffffffffffffffff191681526020018481526020014281526020013373ffffffffffffffffffffffffffffffffffffffff16815250600080886fffffffffffffffffffffffffffffffff19166fffffffffffffffffffffffffffffffff1916815260200190815260200160002060008201518160000160006101000a8154816fffffffffffffffffffffffffffffffff021916908360801c021790555060208201518160000160106101000a8154816fffffffffffffffffffffffffffffffff021916908360801c021790555060408201518160010160006101000a8154816fffffffffffffffffffffffffffffffff021916908360801c0217905550606082015181600201556080820151816003015560a08201518160040160006101000a81548173ffffffffffffffffffffffffffffffffffffffff021916908373ffffffffffffffffffffffffffffffffffffffff16021790555090505060018690806001815401808255809150506001900390600052602060002090600291828204019190066010029091909190916101000a8154816fffffffffffffffffffffffffffffffff021916908360801c0217905550836fffffffffffffffffffffffffffffffff1916856fffffffffffffffffffffffffffffffff1916876fffffffffffffffffffffffffffffffff19167fd5e2f216d38dcf3b3780a798c0b258d373d1720f80c03b30a39172c01ec38487864233604051610b4e939291906114e4565b60405180910390a46001839150915094509492505050565b6000806000806000806000806000896fffffffffffffffffffffffffffffffff19166fffffffffffffffffffffffffffffffff191681526020019081526020016000206040518060c00160405290816000820160009054906101000a900460801b6fffffffffffffffffffffffffffffffff19166fffffffffffffffffffffffffffffffff191681526020016000820160109054906101000a900460801b6fffffffffffffffffffffffffffffffff19166fffffffffffffffffffffffffffffffff191681526020016001820160009054906101000a900460801b6fffffffffffffffffffffffffffffffff19166fffffffffffffffffffffffffffffffff1916815260200160028201548152602001600382015481526020016004820160009054906101000a900473ffffffffffffffffffffffffffffffffffffffff1673ffffffffffffffffffffffffffffffffffffffff1673ffffffffffffffffffffffffffffffffffffffff16815250509050600060801b81600001516fffffffffffffffffffffffffffffffff191603610d34576040517f08c379a0000000000000000000000000000000000000000000000000000000008152600401610d2b906111d3565b60405180910390fd5b806000015181602001518260400151836060015184608001518560a001519650965096509650965096505091939550919395565b6000819050919050565b610d7b81610d68565b82525050565b6000602082019050610d966000830184610d72565b92915050565b600080fd5b60007fffffffffffffffffffffffffffffffff0000000000000000000000000000000082169050919050565b610dd681610da1565b8114610de157600080fd5b50565b600081359050610df381610dcd565b92915050565b600060208284031215610e0f57610e0e610d9c565b5b6000610e1d84828501610de4565b91505092915050565b610e2f81610da1565b82525050565b6000819050919050565b610e4881610e35565b82525050565b600073ffffffffffffffffffffffffffffffffffffffff82169050919050565b6000610e7982610e4e565b9050919050565b610e8981610e6e565b82525050565b600060c082019050610ea46000830189610e26565b610eb16020830188610e26565b610ebe6040830187610e26565b610ecb6060830186610e3f565b610ed86080830185610d72565b610ee560a0830184610e80565b979650505050505050565b610ef981610e35565b8114610f0457600080fd5b50565b600081359050610f1681610ef0565b92915050565b60008060408385031215610f3357610f32610d9c565b5b6000610f4185828601610de4565b9250506020610f5285828601610f07565b9150509250929050565b60008115159050919050565b610f7181610f5c565b82525050565b6000602082019050610f8c6000830184610f68565b92915050565b600081519050919050565b600082825260208201905092915050565b6000819050602082019050919050565b610fc781610da1565b82525050565b6000610fd98383610fbe565b60208301905092915050565b6000602082019050919050565b6000610ffd82610f92565b6110078185610f9d565b935061101283610fae565b8060005b8381101561104357815161102a8882610fcd565b975061103583610fe5565b925050600181019050611016565b5085935050505092915050565b6000602082019050818103600083015261106a8184610ff2565b905092915050565b61107b81610d68565b811461108657600080fd5b50565b60008135905061109881611072565b92915050565b6000602082840312156110b4576110b3610d9c565b5b60006110c284828501611089565b91505092915050565b60006020820190506110e06000830184610e26565b92915050565b60008060008060808587031215611100576110ff610d9c565b5b600061110e87828801610de4565b945050602061111f87828801610de4565b935050604061113087828801610de4565b925050606061114187828801610f07565b91505092959194509250565b60006040820190506111626000830185610f68565b61116f6020830184610e3f565b9392505050565b600082825260208201905092915050565b7f4d657373616765206e6f7420666f756e64000000000000000000000000000000600082015250565b60006111bd601183611176565b91506111c882611187565b602082019050919050565b600060208201905081810360008301526111ec816111b0565b9050919050565b7f4e487b7100000000000000000000000000000000000000000000000000000000600052603260045260246000fd5b7f4e487b7100000000000000000000000000000000000000000000000000000000600052601160045260246000fd5b600061125c82610d68565b91507fffffffffffffffffffffffffffffffffffffffffffffffffffffffffffffffff820361128e5761128d611222565b5b600182019050919050565b7f4e487b7100000000000000000000000000000000000000000000000000000000600052604160045260246000fd5b7f4d6573736167652049442063616e6e6f74206265207a65726f00000000000000600082015250565b60006112fe601983611176565b9150611309826112c8565b602082019050919050565b6000602082019050818103600083015261132d816112f1565b9050919050565b7f5061636b6167652049442063616e6e6f74206265207a65726f00000000000000600082015250565b600061136a601983611176565b915061137582611334565b602082019050919050565b600060208201905081810360008301526113998161135d565b9050919050565b7f4d616e7566616374757265722049442063616e6e6f74206265207a65726f0000600082015250565b60006113d6601e83611176565b91506113e1826113a0565b602082019050919050565b60006020820190508181036000830152611405816113c9565b9050919050565b7f5061796c6f616420686173682063616e6e6f74206265207a65726f0000000000600082015250565b6000611442601b83611176565b915061144d8261140c565b602082019050919050565b6000602082019050818103600083015261147181611435565b9050919050565b7f4d65737361676520616c72656164792072656769737465726564000000000000600082015250565b60006114ae601a83611176565b91506114b982611478565b602082019050919050565b600060208201905081810360008301526114dd816114a1565b9050919050565b60006060820190506114f96000830186610e3f565b6115066020830185610d72565b6115136040830184610e80565b94935050505056fea26469706673582212200ec48f977f0c7e7786803051713f6105f67c5d97be00a12453aa39ae1a232a3264736f6c63430008180033",
  "linkReferences": {},
  "deployedLinkReferences": {}
}