{
  "_format": "hh-sol-artifact-1",
  "contractName": "ShipmentSegmentRegistry",
  "sourceName": "contracts/ShipmentSegmentRegistry.sol",
  "abi": [
    {
      "inputs": [],
      "stateMutability": "nonpayable",
      "type": "constructor"
    },
    {
      "anonymous": false,
      "inputs": [
        {
          "indexed": true,
          "internalType": "bytes16",
          "name": "segmentId",
          "type": "bytes16"
        },
        {
          "indexed": false,
          "internalType": "bytes32",
          "name": "hash",
          "type": "bytes32"
        },
        {
          "indexed": false,
          "internalType": "address",
          "name": "createdBy",
          "type": "address"
        },
        {
          "indexed": false,
          "internalType": "uint256",
          "name": "createdAt",
          "type": "uint256"
        }
      ],
      "name": "SegmentRegistered",
      "type": "event"
    },
    {
      "anonymous": false,
      "inputs": [
        {
          "indexed": true,
          "internalType": "bytes16",
          "name": "segmentId",
          "type": "bytes16"
        },
        {
          "indexed": false,
          "internalType": "bytes32",
          "name": "newHash",
          "type": "bytes32"
        },
        {
          "indexed": false,
          "internalType": "address",
          "name": "updatedBy",
          "type": "address"
        },
        {
          "indexed": false,
          "internalType": "uint256",
          "name": "updatedAt",
          "type": "uint256"
        }
      ],
      "name": "SegmentUpdated",
      "type": "event"
    },
    {
      "inputs": [
        {
          "internalType": "bytes16",
          "name": "segmentId",
          "type": "bytes16"
        }
      ],
      "name": "getSegment",
      "outputs": [
        {
          "components": [
            {
              "internalType": "bytes32",
              "name": "hash",
              "type": "bytes32"
            },
            {
              "internalType": "uint256",
              "name": "createdAt",
              "type": "uint256"
            },
            {
              "internalType": "uint256",
              "name": "updatedAt",
              "type": "uint256"
            },
            {
              "internalType": "address",
              "name": "createdBy",
              "type": "address"
            },
            {
              "internalType": "address",
              "name": "updatedBy",
              "type": "address"
            }
          ],
          "internalType": "struct ShipmentSegmentRegistry.SegmentMeta",
          "name": "",
          "type": "tuple"
        }
      ],
      "stateMutability": "view",
      "type": "function"
    },
    {
      "inputs": [],
      "name": "owner",
      "outputs": [
        {
          "internalType": "address",
          "name": "",
          "type": "address"
        }
      ],
      "stateMutability": "view",
      "type": "function"
    },
    {
      "inputs": [
        {
          "internalType": "bytes16",
          "name": "segmentId",
          "type": "bytes16"
        },
        {
          "internalType": "bytes32",
          "name": "segmentHash",
          "type": "bytes32"
        }
      ],
      "name": "registerSegment",
      "outputs": [],
      "stateMutability": "nonpayable",
      "type": "function"
    },
    {
      "inputs": [
        {
          "internalType": "bytes16",
          "name": "",
          "type": "bytes16"
        }
      ],
      "name": "segments",
      "outputs": [
        {
          "internalType": "bytes32",
          "name": "hash",
          "type": "bytes32"
        },
        {
          "internalType": "uint256",
          "name": "createdAt",
          "type": "uint256"
        },
        {
          "internalType": "uint256",
          "name": "updatedAt",
          "type": "uint256"
        },
        {
          "internalType": "address",
          "name": "createdBy",
          "type": "address"
        },
        {
          "internalType": "address",
          "name": "updatedBy",
          "type": "address"
        }
      ],
      "stateMutability": "view",
      "type": "function"
    },
    {
      "inputs": [
        {
          "internalType": "bytes16",
          "name": "segmentId",
          "type": "bytes16"
        },
        {
          "internalType": "bytes32",
          "name": "newHash",
          "type": "bytes32"
        }
      ],
      "name": "updateSegment",
      "outputs": [],
      "stateMutability": "nonpayable",
      "type": "function"
    }
  ],
  "bytecode": "0x608060405234801561001057600080fd5b50336000806101000a81548173ffffffffffffffffffffffffffffffffffffffff021916908373ffffffffffffffffffffffffffffffffffffffff160217905550610a7c806100606000396000f3fe608060405234801561001057600080fd5b50600436106100575760003560e01c80638da5cb5b1461005c578063a3800a371461007a578063bdb26da414610096578063c24b6f48146100b2578063f9c76bc4146100e2575b600080fd5b610064610116565b60405161007191906106e0565b60405180910390f35b610094600480360381019061008f919061078e565b61013a565b005b6100b060048036038101906100ab919061078e565b610349565b005b6100cc60048036038101906100c791906107ce565b6104ae565b6040516100d9919061089a565b60405180910390f35b6100fc60048036038101906100f791906107ce565b6105cb565b60405161010d9594939291906108d3565b60405180910390f35b60008054906101000a900473ffffffffffffffffffffffffffffffffffffffff1681565b600060016000846fffffffffffffffffffffffffffffffff19166fffffffffffffffffffffffffffffffff1916815260200190815260200160002060010154146101b9576040517f08c379a00000000000000000000000000000000000000000000000000000000081526004016101b090610983565b60405180910390fd5b6040518060a00160405280828152602001428152602001600081526020013373ffffffffffffffffffffffffffffffffffffffff168152602001600073ffffffffffffffffffffffffffffffffffffffff1681525060016000846fffffffffffffffffffffffffffffffff19166fffffffffffffffffffffffffffffffff1916815260200190815260200160002060008201518160000155602082015181600101556040820151816002015560608201518160030160006101000a81548173ffffffffffffffffffffffffffffffffffffffff021916908373ffffffffffffffffffffffffffffffffffffffff16021790555060808201518160040160006101000a81548173ffffffffffffffffffffffffffffffffffffffff021916908373ffffffffffffffffffffffffffffffffffffffff160217905550905050816fffffffffffffffffffffffffffffffff19167f907d79b6e941cf194092034c68518b9b09a348e1371cdd069b7352da8590f1e282334260405161033d939291906109a3565b60405180910390a25050565b600060016000846fffffffffffffffffffffffffffffffff19166fffffffffffffffffffffffffffffffff1916815260200190815260200160002060010154036103c8576040517f08c379a00000000000000000000000000000000000000000000000000000000081526004016103bf90610a26565b60405180910390fd5b600060016000846fffffffffffffffffffffffffffffffff19166fffffffffffffffffffffffffffffffff191681526020019081526020016000209050818160000181905550428160020181905550338160040160006101000a81548173ffffffffffffffffffffffffffffffffffffffff021916908373ffffffffffffffffffffffffffffffffffffffff160217905550826fffffffffffffffffffffffffffffffff19167fc113c2adab423cc1ac1ece26ed8d23e3d85327572e1de3e2e42842b15b7a163f8333426040516104a1939291906109a3565b60405180910390a2505050565b6104b6610641565b60016000836fffffffffffffffffffffffffffffffff19166fffffffffffffffffffffffffffffffff191681526020019081526020016000206040518060a00160405290816000820154815260200160018201548152602001600282015481526020016003820160009054906101000a900473ffffffffffffffffffffffffffffffffffffffff1673ffffffffffffffffffffffffffffffffffffffff1673ffffffffffffffffffffffffffffffffffffffff1681526020016004820160009054906101000a900473ffffffffffffffffffffffffffffffffffffffff1673ffffffffffffffffffffffffffffffffffffffff1673ffffffffffffffffffffffffffffffffffffffff16815250509050919050565b60016020528060005260406000206000915090508060000154908060010154908060020154908060030160009054906101000a900473ffffffffffffffffffffffffffffffffffffffff16908060040160009054906101000a900473ffffffffffffffffffffffffffffffffffffffff16905085565b6040518060a00160405280600080191681526020016000815260200160008152602001600073ffffffffffffffffffffffffffffffffffffffff168152602001600073ffffffffffffffffffffffffffffffffffffffff1681525090565b600073ffffffffffffffffffffffffffffffffffffffff82169050919050565b60006106ca8261069f565b9050919050565b6106da816106bf565b82525050565b60006020820190506106f560008301846106d1565b92915050565b600080fd5b60007fffffffffffffffffffffffffffffffff0000000000000000000000000000000082169050919050565b61073581610700565b811461074057600080fd5b50565b6000813590506107528161072c565b92915050565b6000819050919050565b61076b81610758565b811461077657600080fd5b50565b60008135905061078881610762565b92915050565b600080604083850312156107a5576107a46106fb565b5b60006107b385828601610743565b92505060206107c485828601610779565b9150509250929050565b6000602082840312156107e4576107e36106fb565b5b60006107f284828501610743565b91505092915050565b61080481610758565b82525050565b6000819050919050565b61081d8161080a565b82525050565b61082c816106bf565b82525050565b60a08201600082015161084860008501826107fb565b50602082015161085b6020850182610814565b50604082015161086e6040850182610814565b5060608201516108816060850182610823565b5060808201516108946080850182610823565b50505050565b600060a0820190506108af6000830184610832565b92915050565b6108be81610758565b82525050565b6108cd8161080a565b82525050565b600060a0820190506108e860008301886108b5565b6108f560208301876108c4565b61090260408301866108c4565b61090f60608301856106d1565b61091c60808301846106d1565b9695505050505050565b600082825260208201905092915050565b7f5365676d656e7420616c72656164792065786973747300000000000000000000600082015250565b600061096d601683610926565b915061097882610937565b602082019050919050565b6000602082019050818103600083015261099c81610960565b9050919050565b60006060820190506109b860008301866108b5565b6109c560208301856106d1565b6109d260408301846108c4565b949350505050565b7f5365676d656e7420646f6573206e6f7420657869737400000000000000000000600082015250565b6000610a10601683610926565b9150610a1b826109da565b602082019050919050565b60006020820190508181036000830152610a3f81610a03565b905091905056fea2646970667358221220ea6a6b612e5cfe8ebff6a355a3e93dfa564ca0bc10377a5c4e69e2a3465b171464736f6c63430008180033",
  "linkReferences": {},
  "deployedLinkReferences": {}
}